{
  "contractName": "Mediciences",
  "abi": [
    {
      "inputs": [],
      "payable": false,
      "stateMutability": "nonpayable",
      "type": "constructor"
    },
    {
      "constant": true,
      "inputs": [
        {
          "internalType": "uint256",
          "name": "",
          "type": "uint256"
        }
      ],
      "name": "_Searchmedicien",
      "outputs": [
        {
          "internalType": "uint256",
          "name": "id",
          "type": "uint256"
        },
        {
          "internalType": "string",
          "name": "name",
          "type": "string"
        },
        {
          "internalType": "string",
          "name": "serial",
          "type": "string"
        },
        {
          "internalType": "uint256",
          "name": "productiondate",
          "type": "uint256"
        },
        {
          "internalType": "uint256",
          "name": "expiredate",
          "type": "uint256"
        },
        {
          "internalType": "uint256",
          "name": "manfiactorid",
          "type": "uint256"
        },
        {
          "internalType": "string",
          "name": "manfiactorname",
          "type": "string"
        },
        {
          "internalType": "bool",
          "name": "delivired",
          "type": "bool"
        },
        {
          "internalType": "bool",
          "name": "ordered",
          "type": "bool"
        }
      ],
      "payable": false,
      "stateMutability": "view",
      "type": "function"
    },
    {
      "constant": true,
      "inputs": [
        {
          "internalType": "uint256",
          "name": "",
          "type": "uint256"
        }
      ],
      "name": "mediciences",
      "outputs": [
        {
          "internalType": "uint256",
          "name": "id",
          "type": "uint256"
        },
        {
          "internalType": "string",
          "name": "name",
          "type": "string"
        },
        {
          "internalType": "string",
          "name": "serial",
          "type": "string"
        },
        {
          "internalType": "uint256",
          "name": "productiondate",
          "type": "uint256"
        },
        {
          "internalType": "uint256",
          "name": "expiredate",
          "type": "uint256"
        },
        {
          "internalType": "uint256",
          "name": "manfiactorid",
          "type": "uint256"
        },
        {
          "internalType": "string",
          "name": "manfiactorname",
          "type": "string"
        },
        {
          "internalType": "bool",
          "name": "delivired",
          "type": "bool"
        },
        {
          "internalType": "bool",
          "name": "ordered",
          "type": "bool"
        }
      ],
      "payable": false,
      "stateMutability": "view",
      "type": "function"
    },
    {
      "constant": false,
      "inputs": [
        {
          "internalType": "uint256",
          "name": "_manfiactorid",
          "type": "uint256"
        }
      ],
      "name": "getmedicienbymanf",
      "outputs": [],
      "payable": false,
      "stateMutability": "nonpayable",
      "type": "function"
    },
    {
      "constant": false,
      "inputs": [],
      "name": "get_nonorderd_nonconfirmed_medicien",
      "outputs": [],
      "payable": false,
      "stateMutability": "nonpayable",
      "type": "function"
    },
    {
      "constant": true,
      "inputs": [],
      "name": "returnSearchedData",
      "outputs": [
        {
          "components": [
            {
              "internalType": "uint256",
              "name": "id",
              "type": "uint256"
            },
            {
              "internalType": "string",
              "name": "name",
              "type": "string"
            },
            {
              "internalType": "string",
              "name": "serial",
              "type": "string"
            },
            {
              "internalType": "uint256",
              "name": "productiondate",
              "type": "uint256"
            },
            {
              "internalType": "uint256",
              "name": "expiredate",
              "type": "uint256"
            },
            {
              "internalType": "uint256",
              "name": "manfiactorid",
              "type": "uint256"
            },
            {
              "internalType": "string",
              "name": "manfiactorname",
              "type": "string"
            },
            {
              "internalType": "bool",
              "name": "delivired",
              "type": "bool"
            },
            {
              "internalType": "bool",
              "name": "ordered",
              "type": "bool"
            }
          ],
          "internalType": "struct Mediciences.Medicien[]",
          "name": "_medicien",
          "type": "tuple[]"
        }
      ],
      "payable": false,
      "stateMutability": "view",
      "type": "function"
    },
    {
      "constant": true,
      "inputs": [
        {
          "internalType": "uint256",
          "name": "id",
          "type": "uint256"
        }
      ],
      "name": "getmedicien",
      "outputs": [
        {
          "components": [
            {
              "internalType": "uint256",
              "name": "id",
              "type": "uint256"
            },
            {
              "internalType": "string",
              "name": "name",
              "type": "string"
            },
            {
              "internalType": "string",
              "name": "serial",
              "type": "string"
            },
            {
              "internalType": "uint256",
              "name": "productiondate",
              "type": "uint256"
            },
            {
              "internalType": "uint256",
              "name": "expiredate",
              "type": "uint256"
            },
            {
              "internalType": "uint256",
              "name": "manfiactorid",
              "type": "uint256"
            },
            {
              "internalType": "string",
              "name": "manfiactorname",
              "type": "string"
            },
            {
              "internalType": "bool",
              "name": "delivired",
              "type": "bool"
            },
            {
              "internalType": "bool",
              "name": "ordered",
              "type": "bool"
            }
          ],
          "internalType": "struct Mediciences.Medicien",
          "name": "_medicien",
          "type": "tuple"
        }
      ],
      "payable": false,
      "stateMutability": "view",
      "type": "function"
    },
    {
      "constant": true,
      "inputs": [
        {
          "internalType": "string",
          "name": "seial",
          "type": "string"
        }
      ],
      "name": "getmedicien_serial",
      "outputs": [
        {
          "components": [
            {
              "internalType": "uint256",
              "name": "id",
              "type": "uint256"
            },
            {
              "internalType": "string",
              "name": "name",
              "type": "string"
            },
            {
              "internalType": "string",
              "name": "serial",
              "type": "string"
            },
            {
              "internalType": "uint256",
              "name": "productiondate",
              "type": "uint256"
            },
            {
              "internalType": "uint256",
              "name": "expiredate",
              "type": "uint256"
            },
            {
              "internalType": "uint256",
              "name": "manfiactorid",
              "type": "uint256"
            },
            {
              "internalType": "string",
              "name": "manfiactorname",
              "type": "string"
            },
            {
              "internalType": "bool",
              "name": "delivired",
              "type": "bool"
            },
            {
              "internalType": "bool",
              "name": "ordered",
              "type": "bool"
            }
          ],
          "internalType": "struct Mediciences.Medicien",
          "name": "_medicien",
          "type": "tuple"
        }
      ],
      "payable": false,
      "stateMutability": "view",
      "type": "function"
    },
    {
      "constant": false,
      "inputs": [
        {
          "internalType": "string",
          "name": "_name",
          "type": "string"
        },
        {
          "internalType": "string",
          "name": "_serial",
          "type": "string"
        },
        {
          "internalType": "uint256",
          "name": "profuction",
          "type": "uint256"
        },
        {
          "internalType": "uint256",
          "name": "expire",
          "type": "uint256"
        },
        {
          "internalType": "string",
          "name": "_manName",
          "type": "string"
        },
        {
          "internalType": "uint256",
          "name": "manfiactorid",
          "type": "uint256"
        }
      ],
      "name": "addmedicen",
      "outputs": [],
      "payable": false,
      "stateMutability": "nonpayable",
      "type": "function"
    },
    {
      "constant": false,
      "inputs": [
        {
          "internalType": "uint256",
          "name": "_medid",
          "type": "uint256"
        }
      ],
      "name": "OrderMedicien",
      "outputs": [],
      "payable": false,
      "stateMutability": "nonpayable",
      "type": "function"
    },
    {
      "constant": false,
      "inputs": [
        {
          "internalType": "uint256",
          "name": "_medid",
          "type": "uint256"
        }
      ],
      "name": "deleiverMedicien",
      "outputs": [],
      "payable": false,
      "stateMutability": "nonpayable",
      "type": "function"
    }
  ],
  "bytecode": "0x608060405234801561001057600080fd5b50600160028190555061218a806100286000396000f3fe608060405234801561001057600080fd5b506004361061009e5760003560e01c8063750cf32b11610066578063750cf32b1461013157806380e4100d146101615780639def5a471461017f578063bd7d58fa146101b7578063c87fd3a0146101ef5761009e565b806302553f7e146100a357806304d8e391146100d357806320a97713146100ef57806348815d7a1461010b57806357dd10f914610127575b600080fd5b6100bd60048036036100b89190810190611b04565b61020b565b6040516100ca9190611f19565b60405180910390f35b6100ed60048036036100e89190810190611b04565b610598565b005b61010960048036036101049190810190611b04565b610736565b005b61012560048036036101209190810190611b04565b6107f3565b005b61012f6108b0565b005b61014b600480360361014691908101906119f2565b610a9a565b6040516101589190611f19565b60405180910390f35b610169610e78565b6040516101769190611ef7565b60405180910390f35b61019960048036036101949190810190611b04565b61111c565b6040516101ae99989796959493929190611f3b565b60405180910390f35b6101d160048036036101cc9190810190611b04565b611359565b6040516101e699989796959493929190611f3b565b60405180910390f35b61020960048036036102049190810190611a33565b611596565b005b61021361170a565b60008090505b6000805490508110156104cc57826000828154811061023457fe5b90600052602060002090600802016000015414156104bf576000818154811061025957fe5b90600052602060002090600802016040518061012001604052908160008201548152602001600182018054600181600116156101000203166002900480601f0160208091040260200160405190810160405280929190818152602001828054600181600116156101000203166002900480156103165780601f106102eb57610100808354040283529160200191610316565b820191906000526020600020905b8154815290600101906020018083116102f957829003601f168201915b50505050508152602001600282018054600181600116156101000203166002900480601f0160208091040260200160405190810160405280929190818152602001828054600181600116156101000203166002900480156103b85780601f1061038d576101008083540402835291602001916103b8565b820191906000526020600020905b81548152906001019060200180831161039b57829003601f168201915b50505050508152602001600382015481526020016004820154815260200160058201548152602001600682018054600181600116156101000203166002900480601f0160208091040260200160405190810160405280929190818152602001828054600181600116156101000203166002900480156104785780601f1061044d57610100808354040283529160200191610478565b820191906000526020600020905b81548152906001019060200180831161045b57829003601f168201915b505050505081526020016007820160009054906101000a900460ff161515151581526020016007820160019054906101000a900460ff161515151581525050915050610593565b8080600101915050610219565b50604051806101200160405280600081526020016040518060400160405280600481526020017f6e756c6c0000000000000000000000000000000000000000000000000000000081525081526020016040518060400160405280600481526020017f6e756c6c0000000000000000000000000000000000000000000000000000000081525081526020016000815260200160008152602001600081526020016040518060200160405280600081525081526020016000151581526020016000151581525090505b919050565b600160006105a6919061175a565b60008090505b6000805490508110156107325781600082815481106105c757fe5b9060005260206000209060080201600501541415610725576001600082815481106105ee57fe5b906000526020600020906008020190806001815401808255809150509060018203906000526020600020906008020160009091929091909150600082015481600001556001820181600101908054600181600116156101000203166002900461065892919061177e565b506002820181600201908054600181600116156101000203166002900461068092919061177e565b50600382015481600301556004820154816004015560058201548160050155600682018160060190805460018160011615610100020316600290046106c692919061177e565b506007820160009054906101000a900460ff168160070160006101000a81548160ff0219169083151502179055506007820160019054906101000a900460ff168160070160016101000a81548160ff0219169083151502179055505050505b80806001019150506105ac565b5050565b60008090505b6000805490508110156107ef57816000828154811061075757fe5b9060005260206000209060080201600001541480156107a55750600015156000828154811061078257fe5b906000526020600020906008020160070160019054906101000a900460ff161515145b156107e2576001600082815481106107b957fe5b906000526020600020906008020160070160016101000a81548160ff0219169083151502179055505b808060010191505061073c565b5050565b60008090505b6000805490508110156108ac57816000828154811061081457fe5b9060005260206000209060080201600001541480156108625750600015156000828154811061083f57fe5b906000526020600020906008020160070160009054906101000a900460ff161515145b1561089f5760016000828154811061087657fe5b906000526020600020906008020160070160006101000a81548160ff0219169083151502179055505b80806001019150506107f9565b5050565b600160006108be919061175a565b60008090505b600080549050811015610a975760001515600082815481106108e257fe5b906000526020600020906008020160070160009054906101000a900460ff16151514801561093f5750600015156000828154811061091c57fe5b906000526020600020906008020160070160019054906101000a900460ff161515145b15610a8a5760016000828154811061095357fe5b90600052602060002090600802019080600181540180825580915050906001820390600052602060002090600802016000909192909190915060008201548160000155600182018160010190805460018160011615610100020316600290046109bd92919061177e565b50600282018160020190805460018160011615610100020316600290046109e592919061177e565b5060038201548160030155600482015481600401556005820154816005015560068201816006019080546001816001161561010002031660029004610a2b92919061177e565b506007820160009054906101000a900460ff168160070160006101000a81548160ff0219169083151502179055506007820160019054906101000a900460ff168160070160016101000a81548160ff0219169083151502179055505050505b80806001019150506108c4565b50565b610aa261170a565b60008090505b600080549050811015610dac5782604051602001610ac69190611ec9565b6040516020818303038152906040528051906020012060001c60008281548110610aec57fe5b9060005260206000209060080201600201604051602001610b0d9190611ee0565b6040516020818303038152906040528051906020012060001c1415610d9f5760008181548110610b3957fe5b90600052602060002090600802016040518061012001604052908160008201548152602001600182018054600181600116156101000203166002900480601f016020809104026020016040519081016040528092919081815260200182805460018160011615610100020316600290048015610bf65780601f10610bcb57610100808354040283529160200191610bf6565b820191906000526020600020905b815481529060010190602001808311610bd957829003601f168201915b50505050508152602001600282018054600181600116156101000203166002900480601f016020809104026020016040519081016040528092919081815260200182805460018160011615610100020316600290048015610c985780601f10610c6d57610100808354040283529160200191610c98565b820191906000526020600020905b815481529060010190602001808311610c7b57829003601f168201915b50505050508152602001600382015481526020016004820154815260200160058201548152602001600682018054600181600116156101000203166002900480601f016020809104026020016040519081016040528092919081815260200182805460018160011615610100020316600290048015610d585780601f10610d2d57610100808354040283529160200191610d58565b820191906000526020600020905b815481529060010190602001808311610d3b57829003601f168201915b505050505081526020016007820160009054906101000a900460ff161515151581526020016007820160019054906101000a900460ff161515151581525050915050610e73565b8080600101915050610aa8565b50604051806101200160405280600081526020016040518060400160405280600481526020017f6e756c6c0000000000000000000000000000000000000000000000000000000081525081526020016040518060400160405280600481526020017f6e756c6c0000000000000000000000000000000000000000000000000000000081525081526020016000815260200160008152602001600081526020016040518060200160405280600081525081526020016000151581526020016000151581525090505b919050565b60606001805480602002602001604051908101604052809291908181526020016000905b8282101561111357838290600052602060002090600802016040518061012001604052908160008201548152602001600182018054600181600116156101000203166002900480601f016020809104026020016040519081016040528092919081815260200182805460018160011615610100020316600290048015610f635780601f10610f3857610100808354040283529160200191610f63565b820191906000526020600020905b815481529060010190602001808311610f4657829003601f168201915b50505050508152602001600282018054600181600116156101000203166002900480601f0160208091040260200160405190810160405280929190818152602001828054600181600116156101000203166002900480156110055780601f10610fda57610100808354040283529160200191611005565b820191906000526020600020905b815481529060010190602001808311610fe857829003601f168201915b50505050508152602001600382015481526020016004820154815260200160058201548152602001600682018054600181600116156101000203166002900480601f0160208091040260200160405190810160405280929190818152602001828054600181600116156101000203166002900480156110c55780601f1061109a576101008083540402835291602001916110c5565b820191906000526020600020905b8154815290600101906020018083116110a857829003601f168201915b505050505081526020016007820160009054906101000a900460ff161515151581526020016007820160019054906101000a900460ff16151515158152505081526020019060010190610e9c565b50505050905090565b6001818154811061112957fe5b9060005260206000209060080201600091509050806000015490806001018054600181600116156101000203166002900480601f0160208091040260200160405190810160405280929190818152602001828054600181600116156101000203166002900480156111db5780601f106111b0576101008083540402835291602001916111db565b820191906000526020600020905b8154815290600101906020018083116111be57829003601f168201915b505050505090806002018054600181600116156101000203166002900480601f0160208091040260200160405190810160405280929190818152602001828054600181600116156101000203166002900480156112795780601f1061124e57610100808354040283529160200191611279565b820191906000526020600020905b81548152906001019060200180831161125c57829003601f168201915b505050505090806003015490806004015490806005015490806006018054600181600116156101000203166002900480601f0160208091040260200160405190810160405280929190818152602001828054600181600116156101000203166002900480156113295780601f106112fe57610100808354040283529160200191611329565b820191906000526020600020905b81548152906001019060200180831161130c57829003601f168201915b5050505050908060070160009054906101000a900460ff16908060070160019054906101000a900460ff16905089565b6000818154811061136657fe5b9060005260206000209060080201600091509050806000015490806001018054600181600116156101000203166002900480601f0160208091040260200160405190810160405280929190818152602001828054600181600116156101000203166002900480156114185780601f106113ed57610100808354040283529160200191611418565b820191906000526020600020905b8154815290600101906020018083116113fb57829003601f168201915b505050505090806002018054600181600116156101000203166002900480601f0160208091040260200160405190810160405280929190818152602001828054600181600116156101000203166002900480156114b65780601f1061148b576101008083540402835291602001916114b6565b820191906000526020600020905b81548152906001019060200180831161149957829003601f168201915b505050505090806003015490806004015490806005015490806006018054600181600116156101000203166002900480601f0160208091040260200160405190810160405280929190818152602001828054600181600116156101000203166002900480156115665780601f1061153b57610100808354040283529160200191611566565b820191906000526020600020905b81548152906001019060200180831161154957829003601f168201915b5050505050908060070160009054906101000a900460ff16908060070160019054906101000a900460ff16905089565b61159e61170a565b6115a786610a9a565b905060008160000151141561170157600060405180610120016040528060025481526020018981526020018881526020018781526020018681526020018481526020018581526020016000151581526020016000151581525090806001815401808255809150509060018203906000526020600020906008020160009091929091909150600082015181600001556020820151816001019080519060200190611651929190611805565b50604082015181600201908051906020019061166e929190611805565b50606082015181600301556080820151816004015560a0820151816005015560c08201518160060190805190602001906116a9929190611805565b5060e08201518160070160006101000a81548160ff0219169083151502179055506101008201518160070160016101000a81548160ff0219169083151502179055505050506002600081548092919060010191905055505b50505050505050565b604051806101200160405280600081526020016060815260200160608152602001600081526020016000815260200160008152602001606081526020016000151581526020016000151581525090565b508054600082556008029060005260206000209081019061177b9190611885565b50565b828054600181600116156101000203166002900490600052602060002090601f016020900481019282601f106117b757805485556117f4565b828001600101855582156117f457600052602060002091601f016020900482015b828111156117f35782548255916001019190600101906117d8565b5b509050611801919061191c565b5090565b828054600181600116156101000203166002900490600052602060002090601f016020900481019282601f1061184657805160ff1916838001178555611874565b82800160010185558215611874579182015b82811115611873578251825591602001919060010190611858565b5b509050611881919061191c565b5090565b61191991905b80821115611915576000808201600090556001820160006118ac9190611941565b6002820160006118bc9190611941565b6003820160009055600482016000905560058201600090556006820160006118e49190611941565b6007820160006101000a81549060ff02191690556007820160016101000a81549060ff02191690555060080161188b565b5090565b90565b61193e91905b8082111561193a576000816000905550600101611922565b5090565b90565b50805460018160011615610100020316600290046000825580601f106119675750611986565b601f016020900490600052602060002090810190611985919061191c565b5b50565b600082601f83011261199a57600080fd5b81356119ad6119a88261200a565b611fdd565b915080825260208301602083018583830111156119c957600080fd5b6119d48382846120dd565b50505092915050565b6000813590506119ec81612130565b92915050565b600060208284031215611a0457600080fd5b600082013567ffffffffffffffff811115611a1e57600080fd5b611a2a84828501611989565b91505092915050565b60008060008060008060c08789031215611a4c57600080fd5b600087013567ffffffffffffffff811115611a6657600080fd5b611a7289828a01611989565b965050602087013567ffffffffffffffff811115611a8f57600080fd5b611a9b89828a01611989565b9550506040611aac89828a016119dd565b9450506060611abd89828a016119dd565b935050608087013567ffffffffffffffff811115611ada57600080fd5b611ae689828a01611989565b92505060a0611af789828a016119dd565b9150509295509295509295565b600060208284031215611b1657600080fd5b6000611b24848285016119dd565b91505092915050565b6000611b398383611dd8565b905092915050565b6000611b4c8261205b565b611b568185612089565b935083602082028501611b6885612036565b8060005b85811015611ba45784840389528151611b858582611b2d565b9450611b908361207c565b925060208a01995050600181019050611b6c565b50829750879550505050505092915050565b611bbf816120c7565b82525050565b611bce816120c7565b82525050565b6000611bdf82612071565b611be981856120bc565b9350611bf98185602086016120ec565b80840191505092915050565b6000611c1082612066565b611c1a818561209a565b9350611c2a8185602086016120ec565b611c338161211f565b840191505092915050565b6000611c4982612066565b611c5381856120ab565b9350611c638185602086016120ec565b611c6c8161211f565b840191505092915050565b600081546001811660008114611c945760018114611cb957611cfd565b607f6002830416611ca581876120bc565b955060ff1983168652808601935050611cfd565b60028204611cc781876120bc565b9550611cd285612046565b60005b82811015611cf457815481890152600182019150602081019050611cd5565b82880195505050505b505092915050565b600061012083016000830151611d1e6000860182611eab565b5060208301518482036020860152611d368282611c05565b91505060408301518482036040860152611d508282611c05565b9150506060830151611d656060860182611eab565b506080830151611d786080860182611eab565b5060a0830151611d8b60a0860182611eab565b5060c083015184820360c0860152611da38282611c05565b91505060e0830151611db860e0860182611bb6565b50610100830151611dcd610100860182611bb6565b508091505092915050565b600061012083016000830151611df16000860182611eab565b5060208301518482036020860152611e098282611c05565b91505060408301518482036040860152611e238282611c05565b9150506060830151611e386060860182611eab565b506080830151611e4b6080860182611eab565b5060a0830151611e5e60a0860182611eab565b5060c083015184820360c0860152611e768282611c05565b91505060e0830151611e8b60e0860182611bb6565b50610100830151611ea0610100860182611bb6565b508091505092915050565b611eb4816120d3565b82525050565b611ec3816120d3565b82525050565b6000611ed58284611bd4565b915081905092915050565b6000611eec8284611c77565b915081905092915050565b60006020820190508181036000830152611f118184611b41565b905092915050565b60006020820190508181036000830152611f338184611d05565b905092915050565b600061012082019050611f51600083018c611eba565b8181036020830152611f63818b611c3e565b90508181036040830152611f77818a611c3e565b9050611f866060830189611eba565b611f936080830188611eba565b611fa060a0830187611eba565b81810360c0830152611fb28186611c3e565b9050611fc160e0830185611bc5565b611fcf610100830184611bc5565b9a9950505050505050505050565b6000604051905081810181811067ffffffffffffffff8211171561200057600080fd5b8060405250919050565b600067ffffffffffffffff82111561202157600080fd5b601f19601f8301169050602081019050919050565b6000819050602082019050919050565b60008190508160005260206000209050919050565b600081519050919050565b600081519050919050565b600081519050919050565b6000602082019050919050565b600082825260208201905092915050565b600082825260208201905092915050565b600082825260208201905092915050565b600081905092915050565b60008115159050919050565b6000819050919050565b82818337600083830152505050565b60005b8381101561210a5780820151818401526020810190506120ef565b83811115612119576000848401525b50505050565b6000601f19601f8301169050919050565b612139816120d3565b811461214457600080fd5b5056fea365627a7a72315820336c430edc8b9c16033ecd262899f63df7792ef5624fdfe35c8ba61b76fac12d6c6578706572696d656e74616cf564736f6c63430005100040",
  "source": "// SPDX-License-Identifier: MIT\r\npragma solidity ^0.5.16;\r\n\r\npragma experimental ABIEncoderV2;\r\n\r\n/**\r\n * @title Ballot\r\n * @dev Implements voting process along with vote delegation\r\n */\r\ncontract Mediciences {\r\n    struct Medicien {\r\n        uint256 id;\r\n        string name;\r\n        string serial;\r\n        uint256 productiondate;\r\n        uint256 expiredate;\r\n        uint256 manfiactorid;\r\n        string manfiactorname;\r\n        bool delivired;\r\n        bool ordered;\r\n    }\r\n\r\n    Medicien[] public mediciences;\r\n    Medicien[] public _Searchmedicien;\r\n    uint256 _id;\r\n\r\n    constructor() public {\r\n        _id = 1;\r\n    }\r\n\r\n    function getmedicienbymanf(uint256 _manfiactorid) public {\r\n        delete _Searchmedicien;\r\n        for (uint256 i = 0; i < mediciences.length; i++) {\r\n            if (mediciences[i].manfiactorid == _manfiactorid) {\r\n                _Searchmedicien.push(mediciences[i]);\r\n            }\r\n        }\r\n    }\r\n\r\n    function get_nonorderd_nonconfirmed_medicien() public {\r\n        delete _Searchmedicien;\r\n        for (uint256 i = 0; i < mediciences.length; i++) {\r\n            if (\r\n                mediciences[i].delivired == false &&\r\n                mediciences[i].ordered == false\r\n            ) {\r\n                _Searchmedicien.push(mediciences[i]);\r\n            }\r\n        }\r\n    }\r\n\r\n    function returnSearchedData()\r\n        public\r\n        view\r\n        returns (Medicien[] memory _medicien)\r\n    {\r\n        return _Searchmedicien;\r\n    }\r\n\r\n    function getmedicien(uint256 id)\r\n        public\r\n        view\r\n        returns (Medicien memory _medicien)\r\n    {\r\n        for (uint256 i = 0; i < mediciences.length; i++) {\r\n            if (mediciences[i].id == id) {\r\n                return (mediciences[i]);\r\n            }\r\n        }\r\n        return\r\n            Medicien({\r\n                name: \"null\",\r\n                id: 0,\r\n                serial: \"null\",\r\n                productiondate: 0,\r\n                expiredate: 0,\r\n                manfiactorid: 0,\r\n                manfiactorname: \"\",\r\n                delivired: false,\r\n                ordered: false\r\n            });\r\n    }\r\n\r\n    function getmedicien_serial(string memory seial)\r\n        public\r\n        view\r\n        returns (Medicien memory _medicien)\r\n    {\r\n        for (uint256 i = 0; i < mediciences.length; i++) {\r\n            if (\r\n                uint256(keccak256(abi.encodePacked((mediciences[i].serial)))) ==\r\n                uint256(keccak256(abi.encodePacked((seial))))\r\n            ) {\r\n                return (mediciences[i]);\r\n            }\r\n        }\r\n        return\r\n            Medicien({\r\n                name: \"null\",\r\n                id: 0,\r\n                serial: \"null\",\r\n                productiondate: 0,\r\n                expiredate: 0,\r\n                manfiactorname: \"\",\r\n                manfiactorid: 0,\r\n                delivired: false,\r\n                ordered: false\r\n            });\r\n    }\r\n\r\n    function addmedicen(\r\n        string memory _name,\r\n        string memory _serial,\r\n        uint256 profuction,\r\n        uint256 expire,\r\n        string memory _manName,\r\n        uint256 manfiactorid\r\n    ) public {\r\n        Medicien memory med = getmedicien_serial(_serial);\r\n        if (med.id == 0) {\r\n            mediciences.push(\r\n                Medicien({\r\n                    id: _id,\r\n                    name: _name,\r\n                    serial: _serial,\r\n                    productiondate: profuction,\r\n                    manfiactorname: _manName,\r\n                    expiredate: expire,\r\n                    manfiactorid: manfiactorid,\r\n                    delivired: false,\r\n                    ordered: false\r\n                })\r\n            );\r\n            _id++;\r\n        }\r\n    }\r\n\r\n    function OrderMedicien(uint256 _medid) public {\r\n        for (uint256 i = 0; i < mediciences.length; i++) {\r\n            if (\r\n                mediciences[i].id == _medid && mediciences[i].ordered == false\r\n            ) {\r\n                mediciences[i].ordered = true;\r\n            }\r\n        }\r\n    }\r\n\r\n    function deleiverMedicien(uint256 _medid) public {\r\n        for (uint256 i = 0; i < mediciences.length; i++) {\r\n            if (mediciences[i].id == _medid && mediciences[i].delivired == false) {\r\n                mediciences[i].delivired = true;\r\n            }\r\n        }\r\n    }\r\n}\r\n",
  "sourcePath": "D:/Projects/GP/contracts/Medicien.sol",
  "compiler": {
    "name": "solc",
    "version": "0.5.16+commit.9c3226ce.Emscripten.clang"
  },
  "schemaVersion": "3.4.1",
  "updatedAt": "2021-05-29T14:59:18.462Z",
  "networkType": "ethereum",
  "devdoc": {
    "details": "Implements voting process along with vote delegation",
    "methods": {},
    "title": "Ballot"
  },
  "userdoc": {
    "methods": {}
  }
}