{
  "contractName": "Order",
  "abi": [
    {
      "inputs": [],
      "payable": false,
      "stateMutability": "nonpayable",
      "type": "constructor"
    },
    {
      "constant": true,
      "inputs": [
        {
          "internalType": "uint256",
          "name": "",
          "type": "uint256"
        }
      ],
      "name": "_SearchOrders",
      "outputs": [
        {
          "internalType": "uint256",
          "name": "_date",
          "type": "uint256"
        },
        {
          "internalType": "uint256",
          "name": "orderid",
          "type": "uint256"
        },
        {
          "internalType": "uint256",
          "name": "medicienid",
          "type": "uint256"
        },
        {
          "internalType": "bool",
          "name": "confirmed",
          "type": "bool"
        },
        {
          "internalType": "bool",
          "name": "recieved",
          "type": "bool"
        },
        {
          "internalType": "uint256",
          "name": "manfiactorid",
          "type": "uint256"
        },
        {
          "internalType": "uint256",
          "name": "parmacyid",
          "type": "uint256"
        }
      ],
      "payable": false,
      "stateMutability": "view",
      "type": "function"
    },
    {
      "constant": true,
      "inputs": [
        {
          "internalType": "uint256",
          "name": "",
          "type": "uint256"
        }
      ],
      "name": "orders",
      "outputs": [
        {
          "internalType": "uint256",
          "name": "_date",
          "type": "uint256"
        },
        {
          "internalType": "uint256",
          "name": "orderid",
          "type": "uint256"
        },
        {
          "internalType": "uint256",
          "name": "medicienid",
          "type": "uint256"
        },
        {
          "internalType": "bool",
          "name": "confirmed",
          "type": "bool"
        },
        {
          "internalType": "bool",
          "name": "recieved",
          "type": "bool"
        },
        {
          "internalType": "uint256",
          "name": "manfiactorid",
          "type": "uint256"
        },
        {
          "internalType": "uint256",
          "name": "parmacyid",
          "type": "uint256"
        }
      ],
      "payable": false,
      "stateMutability": "view",
      "type": "function"
    },
    {
      "constant": false,
      "inputs": [
        {
          "internalType": "uint256",
          "name": "_pharmaid",
          "type": "uint256"
        }
      ],
      "name": "getOrderbypharma",
      "outputs": [],
      "payable": false,
      "stateMutability": "nonpayable",
      "type": "function"
    },
    {
      "constant": false,
      "inputs": [
        {
          "internalType": "uint256",
          "name": "_manficid",
          "type": "uint256"
        }
      ],
      "name": "getOrderbymanfi",
      "outputs": [],
      "payable": false,
      "stateMutability": "nonpayable",
      "type": "function"
    },
    {
      "constant": false,
      "inputs": [
        {
          "internalType": "uint256",
          "name": "_pharmaid",
          "type": "uint256"
        }
      ],
      "name": "SSgetOrderbypharma",
      "outputs": [],
      "payable": false,
      "stateMutability": "nonpayable",
      "type": "function"
    },
    {
      "constant": false,
      "inputs": [
        {
          "internalType": "uint256",
          "name": "medicienid",
          "type": "uint256"
        },
        {
          "internalType": "uint256",
          "name": "manfiactorid",
          "type": "uint256"
        },
        {
          "internalType": "uint256",
          "name": "parmacyid",
          "type": "uint256"
        },
        {
          "internalType": "uint256",
          "name": "_date",
          "type": "uint256"
        }
      ],
      "name": "addOrder",
      "outputs": [],
      "payable": false,
      "stateMutability": "nonpayable",
      "type": "function"
    },
    {
      "constant": false,
      "inputs": [
        {
          "internalType": "uint256",
          "name": "orderid",
          "type": "uint256"
        }
      ],
      "name": "confirmOrder",
      "outputs": [],
      "payable": false,
      "stateMutability": "nonpayable",
      "type": "function"
    },
    {
      "constant": false,
      "inputs": [
        {
          "internalType": "uint256",
          "name": "orderid",
          "type": "uint256"
        }
      ],
      "name": "recieveOrder",
      "outputs": [],
      "payable": false,
      "stateMutability": "nonpayable",
      "type": "function"
    },
    {
      "constant": true,
      "inputs": [],
      "name": "returnSearchedOrderData",
      "outputs": [
        {
          "components": [
            {
              "internalType": "uint256",
              "name": "_date",
              "type": "uint256"
            },
            {
              "internalType": "uint256",
              "name": "orderid",
              "type": "uint256"
            },
            {
              "internalType": "uint256",
              "name": "medicienid",
              "type": "uint256"
            },
            {
              "internalType": "bool",
              "name": "confirmed",
              "type": "bool"
            },
            {
              "internalType": "bool",
              "name": "recieved",
              "type": "bool"
            },
            {
              "internalType": "uint256",
              "name": "manfiactorid",
              "type": "uint256"
            },
            {
              "internalType": "uint256",
              "name": "parmacyid",
              "type": "uint256"
            }
          ],
          "internalType": "struct Order.Orders[]",
          "name": "_medicien",
          "type": "tuple[]"
        }
      ],
      "payable": false,
      "stateMutability": "view",
      "type": "function"
    }
  ],
  "bytecode": "0x608060405234801561001057600080fd5b506001600281905550610c9a806100286000396000f3fe608060405234801561001057600080fd5b50600436106100935760003560e01c806396c133841161006657806396c1338414610124578063a85c38ef14610140578063ac42473c14610176578063b0d317a014610192578063f7d34e21146101ae57610093565b80635b581a37146100985780636c640f7d146100b657806380af0890146100ec5780638ac7d79c14610108575b600080fd5b6100a06101ca565b6040516100ad9190610b60565b60405180910390f35b6100d060048036036100cb9190810190610994565b610291565b6040516100e39796959493929190610b82565b60405180910390f35b61010660048036036101019190810190610994565b6102fa565b005b610122600480360361011d9190810190610994565b61042a565b005b61013e600480360361013991908101906109bd565b6104ac565b005b61015a60048036036101559190810190610994565b6105a1565b60405161016d9796959493929190610b82565b60405180910390f35b610190600480360361018b9190810190610994565b61060a565b005b6101ac60048036036101a79190810190610994565b61068c565b005b6101c860048036036101c39190810190610994565b6107bc565b005b60606001805480602002602001604051908101604052809291908181526020016000905b8282101561028857838290600052602060002090600602016040518060e00160405290816000820154815260200160018201548152602001600282015481526020016003820160009054906101000a900460ff161515151581526020016003820160019054906101000a900460ff1615151515815260200160048201548152602001600582015481525050815260200190600101906101ee565b50505050905090565b6001818154811061029e57fe5b90600052602060002090600602016000915090508060000154908060010154908060020154908060030160009054906101000a900460ff16908060030160019054906101000a900460ff16908060040154908060050154905087565b6001600061030891906108ec565b60008090505b60008054905081101561042657816000828154811061032957fe5b90600052602060002090600602016005015414156104195760016000828154811061035057fe5b9060005260206000209060060201908060018154018082558091505090600182039060005260206000209060060201600090919290919091506000820154816000015560018201548160010155600282015481600201556003820160009054906101000a900460ff168160030160006101000a81548160ff0219169083151502179055506003820160019054906101000a900460ff168160030160016101000a81548160ff02191690831515021790555060048201548160040155600582015481600501555050505b808060010191505061030e565b5050565b60008090505b6000805490508110156104a857816000828154811061044b57fe5b906000526020600020906006020160010154141561049b5760016000828154811061047257fe5b906000526020600020906006020160030160006101000a81548160ff0219169083151502179055505b8080600101915050610430565b5050565b60006040518060e001604052808381526020016002548152602001868152602001600015158152602001600015158152602001858152602001848152509080600181540180825580915050906001820390600052602060002090600602016000909192909190915060008201518160000155602082015181600101556040820151816002015560608201518160030160006101000a81548160ff02191690831515021790555060808201518160030160016101000a81548160ff02191690831515021790555060a0820151816004015560c0820151816005015550505060026000815480929190600101919050555050505050565b600081815481106105ae57fe5b90600052602060002090600602016000915090508060000154908060010154908060020154908060030160009054906101000a900460ff16908060030160019054906101000a900460ff16908060040154908060050154905087565b60008090505b60008054905081101561068857816000828154811061062b57fe5b906000526020600020906006020160010154141561067b5760016000828154811061065257fe5b906000526020600020906006020160030160016101000a81548160ff0219169083151502179055505b8080600101915050610610565b5050565b6001600061069a91906108ec565b60008090505b6000805490508110156107b85781600082815481106106bb57fe5b90600052602060002090600602016004015414156107ab576001600082815481106106e257fe5b9060005260206000209060060201908060018154018082558091505090600182039060005260206000209060060201600090919290919091506000820154816000015560018201548160010155600282015481600201556003820160009054906101000a900460ff168160030160006101000a81548160ff0219169083151502179055506003820160019054906101000a900460ff168160030160016101000a81548160ff02191690831515021790555060048201548160040155600582015481600501555050505b80806001019150506106a0565b5050565b600160006107ca91906108ec565b60008090505b6000805490508110156108e85781600082815481106107eb57fe5b90600052602060002090600602016004015414156108db5760016000828154811061081257fe5b9060005260206000209060060201908060018154018082558091505090600182039060005260206000209060060201600090919290919091506000820154816000015560018201548160010155600282015481600201556003820160009054906101000a900460ff168160030160006101000a81548160ff0219169083151502179055506003820160019054906101000a900460ff168160030160016101000a81548160ff02191690831515021790555060048201548160040155600582015481600501555050505b80806001019150506107d0565b5050565b508054600082556006029060005260206000209081019061090d9190610910565b50565b61097c91905b8082111561097857600080820160009055600182016000905560028201600090556003820160006101000a81549060ff02191690556003820160016101000a81549060ff02191690556004820160009055600582016000905550600601610916565b5090565b90565b60008135905061098e81610c40565b92915050565b6000602082840312156109a657600080fd5b60006109b48482850161097f565b91505092915050565b600080600080608085870312156109d357600080fd5b60006109e18782880161097f565b94505060206109f28782880161097f565b9350506040610a038782880161097f565b9250506060610a148782880161097f565b91505092959194509250565b6000610a2c8383610ab4565b60e08301905092915050565b6000610a4382610c01565b610a4d8185610c19565b9350610a5883610bf1565b8060005b83811015610a89578151610a708882610a20565b9750610a7b83610c0c565b925050600181019050610a5c565b5085935050505092915050565b610a9f81610c2a565b82525050565b610aae81610c2a565b82525050565b60e082016000820151610aca6000850182610b42565b506020820151610add6020850182610b42565b506040820151610af06040850182610b42565b506060820151610b036060850182610a96565b506080820151610b166080850182610a96565b5060a0820151610b2960a0850182610b42565b5060c0820151610b3c60c0850182610b42565b50505050565b610b4b81610c36565b82525050565b610b5a81610c36565b82525050565b60006020820190508181036000830152610b7a8184610a38565b905092915050565b600060e082019050610b97600083018a610b51565b610ba46020830189610b51565b610bb16040830188610b51565b610bbe6060830187610aa5565b610bcb6080830186610aa5565b610bd860a0830185610b51565b610be560c0830184610b51565b98975050505050505050565b6000819050602082019050919050565b600081519050919050565b6000602082019050919050565b600082825260208201905092915050565b60008115159050919050565b6000819050919050565b610c4981610c36565b8114610c5457600080fd5b5056fea365627a7a72315820d6c6e4231664c14d93660b0272f965bda500c0010243b1f7892c73420fe5ba336c6578706572696d656e74616cf564736f6c63430005100040",
  "source": "// SPDX-License-Identifier: MIT\r\npragma solidity ^0.5.16;\r\n\r\npragma experimental ABIEncoderV2;\r\n\r\n/**\r\n * @title Ballot\r\n * @dev Implements voting process along with vote delegation\r\n */\r\ncontract Order {\r\n    struct Orders {\r\n        uint256 _date;\r\n        uint256 orderid;\r\n        uint256 medicienid;\r\n        bool confirmed;\r\n        bool recieved;\r\n        uint256 manfiactorid;\r\n        uint256 parmacyid;\r\n    }\r\n    Orders[] public orders;\r\n    Orders[] public _SearchOrders;\r\n    uint256 _orderid;\r\n\r\n    constructor() public {\r\n        _orderid = 1;\r\n    }\r\n\r\n    function getOrderbypharma(uint256 _pharmaid) public {\r\n        delete _SearchOrders;\r\n        for (uint256 i = 0; i < orders.length; i++) {\r\n            if (orders[i].parmacyid == _pharmaid) {\r\n                _SearchOrders.push(orders[i]);\r\n            }\r\n        }\r\n    }\r\n\r\n    function getOrderbymanfi(uint256 _manficid) public {\r\n        delete _SearchOrders;\r\n        for (uint256 i = 0; i < orders.length; i++) {\r\n            if (orders[i].manfiactorid == _manficid) {\r\n                _SearchOrders.push(orders[i]);\r\n            }\r\n        }\r\n    }\r\n\r\n    function SSgetOrderbypharma(uint256 _pharmaid) public {\r\n        delete _SearchOrders;\r\n        for (uint256 i = 0; i < orders.length; i++) {\r\n            if (orders[i].manfiactorid == _pharmaid) {\r\n                _SearchOrders.push(orders[i]);\r\n            }\r\n        }\r\n    }\r\n\r\n    function addOrder(\r\n        uint256 medicienid,\r\n        uint256 manfiactorid,\r\n        uint256 parmacyid,\r\n        uint256 _date\r\n    ) public {\r\n        orders.push(\r\n            Orders({\r\n                orderid: _orderid,\r\n                medicienid: medicienid,\r\n                manfiactorid: manfiactorid,\r\n                parmacyid: parmacyid,\r\n                _date:_date,\r\n                confirmed: false,\r\n                recieved: false\r\n            })\r\n        );\r\n        _orderid++;\r\n    }\r\n\r\n    function confirmOrder(uint256 orderid) public {\r\n        for (uint256 i = 0; i < orders.length; i++) {\r\n            if (orders[i].orderid == orderid) {\r\n                orders[i].confirmed = true;\r\n            }\r\n        }\r\n    }\r\n\r\n    function recieveOrder(uint256 orderid) public {\r\n        for (uint256 i = 0; i < orders.length; i++) {\r\n            if (orders[i].orderid == orderid) {\r\n                orders[i].recieved = true;\r\n            }\r\n        }\r\n    }\r\n\r\n    function returnSearchedOrderData()\r\n        public\r\n        view\r\n        returns (Orders[] memory _medicien)\r\n    {\r\n        return _SearchOrders;\r\n    }\r\n}\r\n",
  "sourcePath": "D:/Projects/GP/contracts/Order.sol",
  "compiler": {
    "name": "solc",
    "version": "0.5.16+commit.9c3226ce.Emscripten.clang"
  },
  "schemaVersion": "3.4.1",
  "updatedAt": "2021-05-29T14:59:18.455Z",
  "networkType": "ethereum",
  "devdoc": {
    "details": "Implements voting process along with vote delegation",
    "methods": {},
    "title": "Ballot"
  },
  "userdoc": {
    "methods": {}
  }
}