{
  "contractName": "Pharmacy",
  "abi": [
    {
      "inputs": [],
      "payable": false,
      "stateMutability": "nonpayable",
      "type": "constructor"
    },
    {
      "constant": true,
      "inputs": [
        {
          "internalType": "uint256",
          "name": "",
          "type": "uint256"
        }
      ],
      "name": "_Seachmedi",
      "outputs": [
        {
          "internalType": "uint256",
          "name": "id",
          "type": "uint256"
        },
        {
          "internalType": "uint256",
          "name": "addedOn",
          "type": "uint256"
        },
        {
          "internalType": "uint256",
          "name": "parmacyid",
          "type": "uint256"
        },
        {
          "internalType": "string",
          "name": "name",
          "type": "string"
        },
        {
          "internalType": "string",
          "name": "serial",
          "type": "string"
        },
        {
          "internalType": "uint256",
          "name": "productiondate",
          "type": "uint256"
        },
        {
          "internalType": "uint256",
          "name": "expiredate",
          "type": "uint256"
        },
        {
          "internalType": "uint256",
          "name": "manfiactorid",
          "type": "uint256"
        },
        {
          "internalType": "string",
          "name": "manfiactorname",
          "type": "string"
        }
      ],
      "payable": false,
      "stateMutability": "view",
      "type": "function"
    },
    {
      "constant": true,
      "inputs": [
        {
          "internalType": "uint256",
          "name": "",
          "type": "uint256"
        }
      ],
      "name": "mediciences",
      "outputs": [
        {
          "internalType": "uint256",
          "name": "id",
          "type": "uint256"
        },
        {
          "internalType": "uint256",
          "name": "addedOn",
          "type": "uint256"
        },
        {
          "internalType": "uint256",
          "name": "parmacyid",
          "type": "uint256"
        },
        {
          "internalType": "string",
          "name": "name",
          "type": "string"
        },
        {
          "internalType": "string",
          "name": "serial",
          "type": "string"
        },
        {
          "internalType": "uint256",
          "name": "productiondate",
          "type": "uint256"
        },
        {
          "internalType": "uint256",
          "name": "expiredate",
          "type": "uint256"
        },
        {
          "internalType": "uint256",
          "name": "manfiactorid",
          "type": "uint256"
        },
        {
          "internalType": "string",
          "name": "manfiactorname",
          "type": "string"
        }
      ],
      "payable": false,
      "stateMutability": "view",
      "type": "function"
    },
    {
      "constant": false,
      "inputs": [
        {
          "internalType": "uint256",
          "name": "_pharmaid",
          "type": "uint256"
        }
      ],
      "name": "getmedicienbyPharma",
      "outputs": [],
      "payable": false,
      "stateMutability": "nonpayable",
      "type": "function"
    },
    {
      "constant": true,
      "inputs": [],
      "name": "returnSearchedMedicienData",
      "outputs": [
        {
          "components": [
            {
              "internalType": "uint256",
              "name": "id",
              "type": "uint256"
            },
            {
              "internalType": "uint256",
              "name": "addedOn",
              "type": "uint256"
            },
            {
              "internalType": "uint256",
              "name": "parmacyid",
              "type": "uint256"
            },
            {
              "internalType": "string",
              "name": "name",
              "type": "string"
            },
            {
              "internalType": "string",
              "name": "serial",
              "type": "string"
            },
            {
              "internalType": "uint256",
              "name": "productiondate",
              "type": "uint256"
            },
            {
              "internalType": "uint256",
              "name": "expiredate",
              "type": "uint256"
            },
            {
              "internalType": "uint256",
              "name": "manfiactorid",
              "type": "uint256"
            },
            {
              "internalType": "string",
              "name": "manfiactorname",
              "type": "string"
            }
          ],
          "internalType": "struct Pharmacy.Medicien[]",
          "name": "_medicien",
          "type": "tuple[]"
        }
      ],
      "payable": false,
      "stateMutability": "view",
      "type": "function"
    },
    {
      "constant": false,
      "inputs": [
        {
          "internalType": "string",
          "name": "_name",
          "type": "string"
        },
        {
          "internalType": "string",
          "name": "_serial",
          "type": "string"
        },
        {
          "internalType": "string",
          "name": "_meanfname",
          "type": "string"
        },
        {
          "internalType": "uint256",
          "name": "profuction",
          "type": "uint256"
        },
        {
          "internalType": "uint256",
          "name": "_date",
          "type": "uint256"
        },
        {
          "internalType": "uint256",
          "name": "expire",
          "type": "uint256"
        },
        {
          "internalType": "uint256",
          "name": "manfiactorid",
          "type": "uint256"
        },
        {
          "internalType": "uint256",
          "name": "pharma",
          "type": "uint256"
        }
      ],
      "name": "addmedicen",
      "outputs": [],
      "payable": false,
      "stateMutability": "nonpayable",
      "type": "function"
    }
  ],
  "bytecode": "0x608060405234801561001057600080fd5b50600160028190555061122d806100286000396000f3fe608060405234801561001057600080fd5b50600436106100575760003560e01c80631c84abba1461005c5780634a8038b614610078578063b13d4a8014610094578063bd7d58fa146100cc578063ff35cd5414610104575b600080fd5b61007660048036036100719190810190610ce4565b610122565b005b610092600480360361008d9190810190610dde565b610244565b005b6100ae60048036036100a99190810190610dde565b61039c565b6040516100c399989796959493929190611015565b60405180910390f35b6100e660048036036100e19190810190610dde565b6105bf565b6040516100fb99989796959493929190611015565b60405180910390f35b61010c6107e2565b6040516101199190610ff3565b60405180910390f35b600060405180610120016040528060025481526020018681526020018381526020018a8152602001898152602001878152602001858152602001848152602001888152509080600181540180825580915050906001820390600052602060002090600902016000909192909190915060008201518160000155602082015181600101556040820151816002015560608201518160030190805190602001906101cb929190610a64565b5060808201518160040190805190602001906101e8929190610a64565b5060a0820151816005015560c0820151816006015560e08201518160070155610100820151816008019080519060200190610224929190610a64565b505050506002600081548092919060010191905055505050505050505050565b600160006102529190610ae4565b60008090505b60008054905081101561039857816000828154811061027357fe5b906000526020600020906009020160020154141561038b5760016000828154811061029a57fe5b90600052602060002090600902019080600181540180825580915050906001820390600052602060002090600902016000909192909190915060008201548160000155600182015481600101556002820154816002015560038201816003019080546001816001161561010002031660029004610318929190610b08565b5060048201816004019080546001816001161561010002031660029004610340929190610b08565b5060058201548160050155600682015481600601556007820154816007015560088201816008019080546001816001161561010002031660029004610386929190610b08565b505050505b8080600101915050610258565b5050565b600181815481106103a957fe5b9060005260206000209060090201600091509050806000015490806001015490806002015490806003018054600181600116156101000203166002900480601f0160208091040260200160405190810160405280929190818152602001828054600181600116156101000203166002900480156104675780601f1061043c57610100808354040283529160200191610467565b820191906000526020600020905b81548152906001019060200180831161044a57829003601f168201915b505050505090806004018054600181600116156101000203166002900480601f0160208091040260200160405190810160405280929190818152602001828054600181600116156101000203166002900480156105055780601f106104da57610100808354040283529160200191610505565b820191906000526020600020905b8154815290600101906020018083116104e857829003601f168201915b505050505090806005015490806006015490806007015490806008018054600181600116156101000203166002900480601f0160208091040260200160405190810160405280929190818152602001828054600181600116156101000203166002900480156105b55780601f1061058a576101008083540402835291602001916105b5565b820191906000526020600020905b81548152906001019060200180831161059857829003601f168201915b5050505050905089565b600081815481106105cc57fe5b9060005260206000209060090201600091509050806000015490806001015490806002015490806003018054600181600116156101000203166002900480601f01602080910402602001604051908101604052809291908181526020018280546001816001161561010002031660029004801561068a5780601f1061065f5761010080835404028352916020019161068a565b820191906000526020600020905b81548152906001019060200180831161066d57829003601f168201915b505050505090806004018054600181600116156101000203166002900480601f0160208091040260200160405190810160405280929190818152602001828054600181600116156101000203166002900480156107285780601f106106fd57610100808354040283529160200191610728565b820191906000526020600020905b81548152906001019060200180831161070b57829003601f168201915b505050505090806005015490806006015490806007015490806008018054600181600116156101000203166002900480601f0160208091040260200160405190810160405280929190818152602001828054600181600116156101000203166002900480156107d85780601f106107ad576101008083540402835291602001916107d8565b820191906000526020600020905b8154815290600101906020018083116107bb57829003601f168201915b5050505050905089565b60606001805480602002602001604051908101604052809291908181526020016000905b82821015610a5b578382906000526020600020906009020160405180610120016040529081600082015481526020016001820154815260200160028201548152602001600382018054600181600116156101000203166002900480601f0160208091040260200160405190810160405280929190818152602001828054600181600116156101000203166002900480156108e15780601f106108b6576101008083540402835291602001916108e1565b820191906000526020600020905b8154815290600101906020018083116108c457829003601f168201915b50505050508152602001600482018054600181600116156101000203166002900480601f0160208091040260200160405190810160405280929190818152602001828054600181600116156101000203166002900480156109835780601f1061095857610100808354040283529160200191610983565b820191906000526020600020905b81548152906001019060200180831161096657829003601f168201915b50505050508152602001600582015481526020016006820154815260200160078201548152602001600882018054600181600116156101000203166002900480601f016020809104026020016040519081016040528092919081815260200182805460018160011615610100020316600290048015610a435780601f10610a1857610100808354040283529160200191610a43565b820191906000526020600020905b815481529060010190602001808311610a2657829003601f168201915b50505050508152505081526020019060010190610806565b50505050905090565b828054600181600116156101000203166002900490600052602060002090601f016020900481019282601f10610aa557805160ff1916838001178555610ad3565b82800160010185558215610ad3579182015b82811115610ad2578251825591602001919060010190610ab7565b5b509050610ae09190610b8f565b5090565b5080546000825560090290600052602060002090810190610b059190610bb4565b50565b828054600181600116156101000203166002900490600052602060002090601f016020900481019282601f10610b415780548555610b7e565b82800160010185558215610b7e57600052602060002091601f016020900482015b82811115610b7d578254825591600101919060010190610b62565b5b509050610b8b9190610b8f565b5090565b610bb191905b80821115610bad576000816000905550600101610b95565b5090565b90565b610c3091905b80821115610c2c5760008082016000905560018201600090556002820160009055600382016000610beb9190610c33565b600482016000610bfb9190610c33565b600582016000905560068201600090556007820160009055600882016000610c239190610c33565b50600901610bba565b5090565b90565b50805460018160011615610100020316600290046000825580601f10610c595750610c78565b601f016020900490600052602060002090810190610c779190610b8f565b5b50565b600082601f830112610c8c57600080fd5b8135610c9f610c9a826110e4565b6110b7565b91508082526020830160208301858383011115610cbb57600080fd5b610cc6838284611180565b50505092915050565b600081359050610cde816111d3565b92915050565b600080600080600080600080610100898b031215610d0157600080fd5b600089013567ffffffffffffffff811115610d1b57600080fd5b610d278b828c01610c7b565b985050602089013567ffffffffffffffff811115610d4457600080fd5b610d508b828c01610c7b565b975050604089013567ffffffffffffffff811115610d6d57600080fd5b610d798b828c01610c7b565b9650506060610d8a8b828c01610ccf565b9550506080610d9b8b828c01610ccf565b94505060a0610dac8b828c01610ccf565b93505060c0610dbd8b828c01610ccf565b92505060e0610dce8b828c01610ccf565b9150509295985092959890939650565b600060208284031215610df057600080fd5b6000610dfe84828501610ccf565b91505092915050565b6000610e138383610f02565b905092915050565b6000610e2682611120565b610e308185611143565b935083602082028501610e4285611110565b8060005b85811015610e7e5784840389528151610e5f8582610e07565b9450610e6a83611136565b925060208a01995050600181019050610e46565b50829750879550505050505092915050565b6000610e9b8261112b565b610ea58185611154565b9350610eb581856020860161118f565b610ebe816111c2565b840191505092915050565b6000610ed48261112b565b610ede8185611165565b9350610eee81856020860161118f565b610ef7816111c2565b840191505092915050565b600061012083016000830151610f1b6000860182610fd5565b506020830151610f2e6020860182610fd5565b506040830151610f416040860182610fd5565b5060608301518482036060860152610f598282610e90565b91505060808301518482036080860152610f738282610e90565b91505060a0830151610f8860a0860182610fd5565b5060c0830151610f9b60c0860182610fd5565b5060e0830151610fae60e0860182610fd5565b50610100830151848203610100860152610fc88282610e90565b9150508091505092915050565b610fde81611176565b82525050565b610fed81611176565b82525050565b6000602082019050818103600083015261100d8184610e1b565b905092915050565b60006101208201905061102b600083018c610fe4565b611038602083018b610fe4565b611045604083018a610fe4565b81810360608301526110578189610ec9565b9050818103608083015261106b8188610ec9565b905061107a60a0830187610fe4565b61108760c0830186610fe4565b61109460e0830185610fe4565b8181036101008301526110a78184610ec9565b90509a9950505050505050505050565b6000604051905081810181811067ffffffffffffffff821117156110da57600080fd5b8060405250919050565b600067ffffffffffffffff8211156110fb57600080fd5b601f19601f8301169050602081019050919050565b6000819050602082019050919050565b600081519050919050565b600081519050919050565b6000602082019050919050565b600082825260208201905092915050565b600082825260208201905092915050565b600082825260208201905092915050565b6000819050919050565b82818337600083830152505050565b60005b838110156111ad578082015181840152602081019050611192565b838111156111bc576000848401525b50505050565b6000601f19601f8301169050919050565b6111dc81611176565b81146111e757600080fd5b5056fea365627a7a72315820b8e5d3e49b56e8591856fe250cf5354eeb99cfcd64fc770ddccfd54e7b36af556c6578706572696d656e74616cf564736f6c63430005100040",
  "source": "// SPDX-License-Identifier: MIT\r\npragma solidity ^0.5.16;\r\n\r\npragma experimental ABIEncoderV2;\r\n\r\n/**\r\n * @title Ballot\r\n * @dev Implements voting process along with vote delegation\r\n */\r\ncontract Pharmacy {\r\n    struct Medicien {\r\n        uint256 id;\r\n        uint256 addedOn;\r\n        uint256 parmacyid;\r\n        string name;\r\n        string serial;\r\n        uint256 productiondate;\r\n        uint256 expiredate;\r\n        uint256 manfiactorid;\r\n        string manfiactorname;\r\n    }\r\n\r\n    Medicien[] public mediciences;\r\n    Medicien[] public _Seachmedi;\r\n    uint256 _medid;\r\n\r\n    constructor() public {\r\n        _medid = 1;\r\n    }\r\n\r\n    //////////////////////////////////////////////////////////medicien///////////////////////////////////////////\r\n    function getmedicienbyPharma(uint256 _pharmaid) public {\r\n        delete _Seachmedi;\r\n        for (uint256 i = 0; i < mediciences.length; i++) {\r\n            if (mediciences[i].parmacyid == _pharmaid) {\r\n                _Seachmedi.push(mediciences[i]);\r\n            }\r\n        }\r\n    }\r\n\r\n    function returnSearchedMedicienData()\r\n        public\r\n        view\r\n        returns (Medicien[] memory _medicien)\r\n    {\r\n        return _Seachmedi;\r\n    }\r\n\r\n    function addmedicen(\r\n        string memory _name,\r\n        string memory _serial,\r\n        string memory _meanfname,\r\n        uint256 profuction,\r\n        uint256 _date,\r\n        uint256 expire,\r\n        uint256 manfiactorid,\r\n        uint256 pharma\r\n    ) public {\r\n        mediciences.push(\r\n            Medicien({\r\n                id: _medid,\r\n                addedOn: _date,\r\n                parmacyid: pharma,\r\n                name: _name,\r\n                serial: _serial,\r\n                productiondate: profuction,\r\n                expiredate: expire,\r\n                manfiactorid: manfiactorid,\r\n                manfiactorname: _meanfname\r\n            })\r\n        );\r\n        _medid++;\r\n    }\r\n}\r\n",
  "sourcePath": "D:/Projects/GP/contracts/Pharmacy.sol",
  "compiler": {
    "name": "solc",
    "version": "0.5.16+commit.9c3226ce.Emscripten.clang"
  },
  "schemaVersion": "3.4.1",
  "updatedAt": "2021-05-29T14:59:18.467Z",
  "networkType": "ethereum",
  "devdoc": {
    "details": "Implements voting process along with vote delegation",
    "methods": {},
    "title": "Ballot"
  },
  "userdoc": {
    "methods": {
      "getmedicienbyPharma(uint256)": {
        "notice": "///////////////////////////////////////////////////////medicien///////////////////////////////////////////"
      }
    }
  }
}