{
  "contractName": "Mediciences",
  "abi": [
    {
      "inputs": [],
      "payable": false,
      "stateMutability": "nonpayable",
      "type": "constructor"
    },
    {
      "constant": true,
      "inputs": [
        {
          "internalType": "uint256",
          "name": "",
          "type": "uint256"
        }
      ],
      "name": "_Searchmedicien",
      "outputs": [
        {
          "internalType": "uint256",
          "name": "id",
          "type": "uint256"
        },
        {
          "internalType": "string",
          "name": "name",
          "type": "string"
        },
        {
          "internalType": "string",
          "name": "serial",
          "type": "string"
        },
        {
          "internalType": "uint256",
          "name": "productiondate",
          "type": "uint256"
        },
        {
          "internalType": "uint256",
          "name": "expiredate",
          "type": "uint256"
        },
        {
          "internalType": "uint256",
          "name": "manfiactorid",
          "type": "uint256"
        },
        {
          "internalType": "string",
          "name": "manfiactorname",
          "type": "string"
        },
        {
          "internalType": "bool",
          "name": "delivired",
          "type": "bool"
        },
        {
          "internalType": "bool",
          "name": "ordered",
          "type": "bool"
        },
        {
          "internalType": "uint256",
          "name": "createdDate",
          "type": "uint256"
        },
        {
          "internalType": "uint256",
          "name": "orderedDate",
          "type": "uint256"
        },
        {
          "internalType": "uint256",
          "name": "deliveredDate",
          "type": "uint256"
        }
      ],
      "payable": false,
      "stateMutability": "view",
      "type": "function"
    },
    {
      "constant": true,
      "inputs": [
        {
          "internalType": "uint256",
          "name": "",
          "type": "uint256"
        }
      ],
      "name": "mediciences",
      "outputs": [
        {
          "internalType": "uint256",
          "name": "id",
          "type": "uint256"
        },
        {
          "internalType": "string",
          "name": "name",
          "type": "string"
        },
        {
          "internalType": "string",
          "name": "serial",
          "type": "string"
        },
        {
          "internalType": "uint256",
          "name": "productiondate",
          "type": "uint256"
        },
        {
          "internalType": "uint256",
          "name": "expiredate",
          "type": "uint256"
        },
        {
          "internalType": "uint256",
          "name": "manfiactorid",
          "type": "uint256"
        },
        {
          "internalType": "string",
          "name": "manfiactorname",
          "type": "string"
        },
        {
          "internalType": "bool",
          "name": "delivired",
          "type": "bool"
        },
        {
          "internalType": "bool",
          "name": "ordered",
          "type": "bool"
        },
        {
          "internalType": "uint256",
          "name": "createdDate",
          "type": "uint256"
        },
        {
          "internalType": "uint256",
          "name": "orderedDate",
          "type": "uint256"
        },
        {
          "internalType": "uint256",
          "name": "deliveredDate",
          "type": "uint256"
        }
      ],
      "payable": false,
      "stateMutability": "view",
      "type": "function"
    },
    {
      "constant": false,
      "inputs": [
        {
          "internalType": "uint256",
          "name": "_manfiactorid",
          "type": "uint256"
        }
      ],
      "name": "getmedicienbymanf",
      "outputs": [],
      "payable": false,
      "stateMutability": "nonpayable",
      "type": "function"
    },
    {
      "constant": false,
      "inputs": [],
      "name": "get_nonorderd_nonconfirmed_medicien",
      "outputs": [],
      "payable": false,
      "stateMutability": "nonpayable",
      "type": "function"
    },
    {
      "constant": true,
      "inputs": [],
      "name": "returnSearchedData",
      "outputs": [
        {
          "components": [
            {
              "internalType": "uint256",
              "name": "id",
              "type": "uint256"
            },
            {
              "internalType": "string",
              "name": "name",
              "type": "string"
            },
            {
              "internalType": "string",
              "name": "serial",
              "type": "string"
            },
            {
              "internalType": "uint256",
              "name": "productiondate",
              "type": "uint256"
            },
            {
              "internalType": "uint256",
              "name": "expiredate",
              "type": "uint256"
            },
            {
              "internalType": "uint256",
              "name": "manfiactorid",
              "type": "uint256"
            },
            {
              "internalType": "string",
              "name": "manfiactorname",
              "type": "string"
            },
            {
              "internalType": "bool",
              "name": "delivired",
              "type": "bool"
            },
            {
              "internalType": "bool",
              "name": "ordered",
              "type": "bool"
            },
            {
              "internalType": "uint256",
              "name": "createdDate",
              "type": "uint256"
            },
            {
              "internalType": "uint256",
              "name": "orderedDate",
              "type": "uint256"
            },
            {
              "internalType": "uint256",
              "name": "deliveredDate",
              "type": "uint256"
            }
          ],
          "internalType": "struct Mediciences.Medicien[]",
          "name": "_medicien",
          "type": "tuple[]"
        }
      ],
      "payable": false,
      "stateMutability": "view",
      "type": "function"
    },
    {
      "constant": true,
      "inputs": [
        {
          "internalType": "uint256",
          "name": "id",
          "type": "uint256"
        }
      ],
      "name": "getmedicien",
      "outputs": [
        {
          "components": [
            {
              "internalType": "uint256",
              "name": "id",
              "type": "uint256"
            },
            {
              "internalType": "string",
              "name": "name",
              "type": "string"
            },
            {
              "internalType": "string",
              "name": "serial",
              "type": "string"
            },
            {
              "internalType": "uint256",
              "name": "productiondate",
              "type": "uint256"
            },
            {
              "internalType": "uint256",
              "name": "expiredate",
              "type": "uint256"
            },
            {
              "internalType": "uint256",
              "name": "manfiactorid",
              "type": "uint256"
            },
            {
              "internalType": "string",
              "name": "manfiactorname",
              "type": "string"
            },
            {
              "internalType": "bool",
              "name": "delivired",
              "type": "bool"
            },
            {
              "internalType": "bool",
              "name": "ordered",
              "type": "bool"
            },
            {
              "internalType": "uint256",
              "name": "createdDate",
              "type": "uint256"
            },
            {
              "internalType": "uint256",
              "name": "orderedDate",
              "type": "uint256"
            },
            {
              "internalType": "uint256",
              "name": "deliveredDate",
              "type": "uint256"
            }
          ],
          "internalType": "struct Mediciences.Medicien",
          "name": "_medicien",
          "type": "tuple"
        }
      ],
      "payable": false,
      "stateMutability": "view",
      "type": "function"
    },
    {
      "constant": true,
      "inputs": [
        {
          "internalType": "string",
          "name": "seial",
          "type": "string"
        }
      ],
      "name": "getmedicien_serial",
      "outputs": [
        {
          "components": [
            {
              "internalType": "uint256",
              "name": "id",
              "type": "uint256"
            },
            {
              "internalType": "string",
              "name": "name",
              "type": "string"
            },
            {
              "internalType": "string",
              "name": "serial",
              "type": "string"
            },
            {
              "internalType": "uint256",
              "name": "productiondate",
              "type": "uint256"
            },
            {
              "internalType": "uint256",
              "name": "expiredate",
              "type": "uint256"
            },
            {
              "internalType": "uint256",
              "name": "manfiactorid",
              "type": "uint256"
            },
            {
              "internalType": "string",
              "name": "manfiactorname",
              "type": "string"
            },
            {
              "internalType": "bool",
              "name": "delivired",
              "type": "bool"
            },
            {
              "internalType": "bool",
              "name": "ordered",
              "type": "bool"
            },
            {
              "internalType": "uint256",
              "name": "createdDate",
              "type": "uint256"
            },
            {
              "internalType": "uint256",
              "name": "orderedDate",
              "type": "uint256"
            },
            {
              "internalType": "uint256",
              "name": "deliveredDate",
              "type": "uint256"
            }
          ],
          "internalType": "struct Mediciences.Medicien",
          "name": "_medicien",
          "type": "tuple"
        }
      ],
      "payable": false,
      "stateMutability": "view",
      "type": "function"
    },
    {
      "constant": false,
      "inputs": [
        {
          "internalType": "string",
          "name": "_name",
          "type": "string"
        },
        {
          "internalType": "string",
          "name": "_serial",
          "type": "string"
        },
        {
          "internalType": "uint256",
          "name": "profuction",
          "type": "uint256"
        },
        {
          "internalType": "uint256",
          "name": "expire",
          "type": "uint256"
        },
        {
          "internalType": "string",
          "name": "_manName",
          "type": "string"
        },
        {
          "internalType": "uint256",
          "name": "manfiactorid",
          "type": "uint256"
        },
        {
          "internalType": "uint256",
          "name": "date",
          "type": "uint256"
        }
      ],
      "name": "addmedicen",
      "outputs": [],
      "payable": false,
      "stateMutability": "nonpayable",
      "type": "function"
    },
    {
      "constant": false,
      "inputs": [
        {
          "internalType": "uint256",
          "name": "_medid",
          "type": "uint256"
        },
        {
          "internalType": "uint256",
          "name": "date",
          "type": "uint256"
        }
      ],
      "name": "OrderMedicien",
      "outputs": [],
      "payable": false,
      "stateMutability": "nonpayable",
      "type": "function"
    },
    {
      "constant": false,
      "inputs": [
        {
          "internalType": "uint256",
          "name": "_medid",
          "type": "uint256"
        },
        {
          "internalType": "uint256",
          "name": "date",
          "type": "uint256"
        }
      ],
      "name": "deleiverMedicien",
      "outputs": [],
      "payable": false,
      "stateMutability": "nonpayable",
      "type": "function"
    }
  ],
  "bytecode": "0x608060405234801561001057600080fd5b50600160028190555061241b806100286000396000f3fe608060405234801561001057600080fd5b506004361061009e5760003560e01c8063750cf32b11610066578063750cf32b1461013157806380e4100d1461016157806386274ac21461017f5780639def5a471461019b578063bd7d58fa146101d65761009e565b806302553f7e146100a357806304d8e391146100d3578063144cce7e146100ef57806328b6747b1461010b57806357dd10f914610127575b600080fd5b6100bd60048036036100b89190810190611cae565b610211565b6040516100ca919061217d565b60405180910390f35b6100ed60048036036100e89190810190611cae565b6105d1565b005b61010960048036036101049190810190611bc8565b61078d565b005b61012560048036036101209190810190611cd7565b610937565b005b61012f610a18565b005b61014b60048036036101469190810190611b87565b610c20565b604051610158919061217d565b60405180910390f35b610169611031565b604051610176919061215b565b60405180910390f35b61019960048036036101949190810190611cd7565b6112f3565b005b6101b560048036036101b09190810190611cae565b6113d4565b6040516101cd9c9b9a9998979695949392919061219f565b60405180910390f35b6101f060048036036101eb9190810190611cae565b611623565b6040516102089c9b9a9998979695949392919061219f565b60405180910390f35b610219611872565b60008090505b6000805490508110156104f057826000828154811061023a57fe5b90600052602060002090600b02016000015414156104e3576000818154811061025f57fe5b90600052602060002090600b02016040518061018001604052908160008201548152602001600182018054600181600116156101000203166002900480601f01602080910402602001604051908101604052809291908181526020018280546001816001161561010002031660029004801561031c5780601f106102f15761010080835404028352916020019161031c565b820191906000526020600020905b8154815290600101906020018083116102ff57829003601f168201915b50505050508152602001600282018054600181600116156101000203166002900480601f0160208091040260200160405190810160405280929190818152602001828054600181600116156101000203166002900480156103be5780601f10610393576101008083540402835291602001916103be565b820191906000526020600020905b8154815290600101906020018083116103a157829003601f168201915b50505050508152602001600382015481526020016004820154815260200160058201548152602001600682018054600181600116156101000203166002900480601f01602080910402602001604051908101604052809291908181526020018280546001816001161561010002031660029004801561047e5780601f106104535761010080835404028352916020019161047e565b820191906000526020600020905b81548152906001019060200180831161046157829003601f168201915b505050505081526020016007820160009054906101000a900460ff161515151581526020016007820160019054906101000a900460ff161515151581526020016008820154815260200160098201548152602001600a820154815250509150506105cc565b808060010191505061021f565b50604051806101800160405280600081526020016040518060400160405280600481526020017f6e756c6c0000000000000000000000000000000000000000000000000000000081525081526020016040518060400160405280600481526020017f6e756c6c0000000000000000000000000000000000000000000000000000000081525081526020016000815260200160008152602001600081526020016040518060200160405280600081525081526020016000151581526020016000151581526020016000815260200160008152602001600081525090505b919050565b600160006105df91906118d7565b60008090505b60008054905081101561078957816000828154811061060057fe5b90600052602060002090600b020160050154141561077c5760016000828154811061062757fe5b90600052602060002090600b02019080600181540180825580915050906001820390600052602060002090600b02016000909192909190915060008201548160000155600182018160010190805460018160011615610100020316600290046106919291906118fb565b50600282018160020190805460018160011615610100020316600290046106b99291906118fb565b50600382015481600301556004820154816004015560058201548160050155600682018160060190805460018160011615610100020316600290046106ff9291906118fb565b506007820160009054906101000a900460ff168160070160006101000a81548160ff0219169083151502179055506007820160019054906101000a900460ff168160070160016101000a81548160ff0219169083151502179055506008820154816008015560098201548160090155600a82015481600a01555050505b80806001019150506105e5565b5050565b610795611872565b61079e87610c20565b905060008160000151141561092d57600060405180610180016040528060025481526020018a81526020018981526020018881526020018781526020018581526020018681526020016000151581526020016000151581526020018481526020016000815260200160008152509080600181540180825580915050906001820390600052602060002090600b02016000909192909190915060008201518160000155602082015181600101908051906020019061085c929190611982565b506040820151816002019080519060200190610879929190611982565b50606082015181600301556080820151816004015560a0820151816005015560c08201518160060190805190602001906108b4929190611982565b5060e08201518160070160006101000a81548160ff0219169083151502179055506101008201518160070160016101000a81548160ff0219169083151502179055506101208201518160080155610140820151816009015561016082015181600a01555050506002600081548092919060010191905055505b5050505050505050565b60008090505b600080549050811015610a1357826000828154811061095857fe5b90600052602060002090600b0201600001541480156109a65750600015156000828154811061098357fe5b90600052602060002090600b020160070160009054906101000a900460ff161515145b15610a06576001600082815481106109ba57fe5b90600052602060002090600b020160070160006101000a81548160ff02191690831515021790555081600082815481106109f057fe5b90600052602060002090600b0201600a01819055505b808060010191505061093d565b505050565b60016000610a2691906118d7565b60008090505b600080549050811015610c1d576000151560008281548110610a4a57fe5b90600052602060002090600b020160070160009054906101000a900460ff161515148015610aa757506000151560008281548110610a8457fe5b90600052602060002090600b020160070160019054906101000a900460ff161515145b15610c1057600160008281548110610abb57fe5b90600052602060002090600b02019080600181540180825580915050906001820390600052602060002090600b0201600090919290919091506000820154816000015560018201816001019080546001816001161561010002031660029004610b259291906118fb565b5060028201816002019080546001816001161561010002031660029004610b4d9291906118fb565b5060038201548160030155600482015481600401556005820154816005015560068201816006019080546001816001161561010002031660029004610b939291906118fb565b506007820160009054906101000a900460ff168160070160006101000a81548160ff0219169083151502179055506007820160019054906101000a900460ff168160070160016101000a81548160ff0219169083151502179055506008820154816008015560098201548160090155600a82015481600a01555050505b8080600101915050610a2c565b50565b610c28611872565b60008090505b600080549050811015610f505782604051602001610c4c919061212d565b6040516020818303038152906040528051906020012060001c60008281548110610c7257fe5b90600052602060002090600b0201600201604051602001610c939190612144565b6040516020818303038152906040528051906020012060001c1415610f435760008181548110610cbf57fe5b90600052602060002090600b02016040518061018001604052908160008201548152602001600182018054600181600116156101000203166002900480601f016020809104026020016040519081016040528092919081815260200182805460018160011615610100020316600290048015610d7c5780601f10610d5157610100808354040283529160200191610d7c565b820191906000526020600020905b815481529060010190602001808311610d5f57829003601f168201915b50505050508152602001600282018054600181600116156101000203166002900480601f016020809104026020016040519081016040528092919081815260200182805460018160011615610100020316600290048015610e1e5780601f10610df357610100808354040283529160200191610e1e565b820191906000526020600020905b815481529060010190602001808311610e0157829003601f168201915b50505050508152602001600382015481526020016004820154815260200160058201548152602001600682018054600181600116156101000203166002900480601f016020809104026020016040519081016040528092919081815260200182805460018160011615610100020316600290048015610ede5780601f10610eb357610100808354040283529160200191610ede565b820191906000526020600020905b815481529060010190602001808311610ec157829003601f168201915b505050505081526020016007820160009054906101000a900460ff161515151581526020016007820160019054906101000a900460ff161515151581526020016008820154815260200160098201548152602001600a8201548152505091505061102c565b8080600101915050610c2e565b50604051806101800160405280600081526020016040518060400160405280600481526020017f6e756c6c0000000000000000000000000000000000000000000000000000000081525081526020016040518060400160405280600481526020017f6e756c6c0000000000000000000000000000000000000000000000000000000081525081526020016000815260200160008152602001600081526020016040518060200160405280600081525081526020016000151581526020016000151581526020016000815260200160008152602001600081525090505b919050565b60606001805480602002602001604051908101604052809291908181526020016000905b828210156112ea57838290600052602060002090600b02016040518061018001604052908160008201548152602001600182018054600181600116156101000203166002900480601f01602080910402602001604051908101604052809291908181526020018280546001816001161561010002031660029004801561111c5780601f106110f15761010080835404028352916020019161111c565b820191906000526020600020905b8154815290600101906020018083116110ff57829003601f168201915b50505050508152602001600282018054600181600116156101000203166002900480601f0160208091040260200160405190810160405280929190818152602001828054600181600116156101000203166002900480156111be5780601f10611193576101008083540402835291602001916111be565b820191906000526020600020905b8154815290600101906020018083116111a157829003601f168201915b50505050508152602001600382015481526020016004820154815260200160058201548152602001600682018054600181600116156101000203166002900480601f01602080910402602001604051908101604052809291908181526020018280546001816001161561010002031660029004801561127e5780601f106112535761010080835404028352916020019161127e565b820191906000526020600020905b81548152906001019060200180831161126157829003601f168201915b505050505081526020016007820160009054906101000a900460ff161515151581526020016007820160019054906101000a900460ff161515151581526020016008820154815260200160098201548152602001600a8201548152505081526020019060010190611055565b50505050905090565b60008090505b6000805490508110156113cf57826000828154811061131457fe5b90600052602060002090600b0201600001541480156113625750600015156000828154811061133f57fe5b90600052602060002090600b020160070160019054906101000a900460ff161515145b156113c25760016000828154811061137657fe5b90600052602060002090600b020160070160016101000a81548160ff02191690831515021790555081600082815481106113ac57fe5b90600052602060002090600b0201600901819055505b80806001019150506112f9565b505050565b600181815481106113e157fe5b90600052602060002090600b0201600091509050806000015490806001018054600181600116156101000203166002900480601f0160208091040260200160405190810160405280929190818152602001828054600181600116156101000203166002900480156114935780601f1061146857610100808354040283529160200191611493565b820191906000526020600020905b81548152906001019060200180831161147657829003601f168201915b505050505090806002018054600181600116156101000203166002900480601f0160208091040260200160405190810160405280929190818152602001828054600181600116156101000203166002900480156115315780601f1061150657610100808354040283529160200191611531565b820191906000526020600020905b81548152906001019060200180831161151457829003601f168201915b505050505090806003015490806004015490806005015490806006018054600181600116156101000203166002900480601f0160208091040260200160405190810160405280929190818152602001828054600181600116156101000203166002900480156115e15780601f106115b6576101008083540402835291602001916115e1565b820191906000526020600020905b8154815290600101906020018083116115c457829003601f168201915b5050505050908060070160009054906101000a900460ff16908060070160019054906101000a900460ff169080600801549080600901549080600a015490508c565b6000818154811061163057fe5b90600052602060002090600b0201600091509050806000015490806001018054600181600116156101000203166002900480601f0160208091040260200160405190810160405280929190818152602001828054600181600116156101000203166002900480156116e25780601f106116b7576101008083540402835291602001916116e2565b820191906000526020600020905b8154815290600101906020018083116116c557829003601f168201915b505050505090806002018054600181600116156101000203166002900480601f0160208091040260200160405190810160405280929190818152602001828054600181600116156101000203166002900480156117805780601f1061175557610100808354040283529160200191611780565b820191906000526020600020905b81548152906001019060200180831161176357829003601f168201915b505050505090806003015490806004015490806005015490806006018054600181600116156101000203166002900480601f0160208091040260200160405190810160405280929190818152602001828054600181600116156101000203166002900480156118305780601f1061180557610100808354040283529160200191611830565b820191906000526020600020905b81548152906001019060200180831161181357829003601f168201915b5050505050908060070160009054906101000a900460ff16908060070160019054906101000a900460ff169080600801549080600901549080600a015490508c565b604051806101800160405280600081526020016060815260200160608152602001600081526020016000815260200160008152602001606081526020016000151581526020016000151581526020016000815260200160008152602001600081525090565b50805460008255600b02906000526020600020908101906118f89190611a02565b50565b828054600181600116156101000203166002900490600052602060002090601f016020900481019282601f106119345780548555611971565b8280016001018555821561197157600052602060002091601f016020900482015b82811115611970578254825591600101919060010190611955565b5b50905061197e9190611ab1565b5090565b828054600181600116156101000203166002900490600052602060002090601f016020900481019282601f106119c357805160ff19168380011785556119f1565b828001600101855582156119f1579182015b828111156119f05782518255916020019190600101906119d5565b5b5090506119fe9190611ab1565b5090565b611aae91905b80821115611aaa57600080820160009055600182016000611a299190611ad6565b600282016000611a399190611ad6565b600382016000905560048201600090556005820160009055600682016000611a619190611ad6565b6007820160006101000a81549060ff02191690556007820160016101000a81549060ff021916905560088201600090556009820160009055600a82016000905550600b01611a08565b5090565b90565b611ad391905b80821115611acf576000816000905550600101611ab7565b5090565b90565b50805460018160011615610100020316600290046000825580601f10611afc5750611b1b565b601f016020900490600052602060002090810190611b1a9190611ab1565b5b50565b600082601f830112611b2f57600080fd5b8135611b42611b3d8261229b565b61226e565b91508082526020830160208301858383011115611b5e57600080fd5b611b6983828461236e565b50505092915050565b600081359050611b81816123c1565b92915050565b600060208284031215611b9957600080fd5b600082013567ffffffffffffffff811115611bb357600080fd5b611bbf84828501611b1e565b91505092915050565b600080600080600080600060e0888a031215611be357600080fd5b600088013567ffffffffffffffff811115611bfd57600080fd5b611c098a828b01611b1e565b975050602088013567ffffffffffffffff811115611c2657600080fd5b611c328a828b01611b1e565b9650506040611c438a828b01611b72565b9550506060611c548a828b01611b72565b945050608088013567ffffffffffffffff811115611c7157600080fd5b611c7d8a828b01611b1e565b93505060a0611c8e8a828b01611b72565b92505060c0611c9f8a828b01611b72565b91505092959891949750929550565b600060208284031215611cc057600080fd5b6000611cce84828501611b72565b91505092915050565b60008060408385031215611cea57600080fd5b6000611cf885828601611b72565b9250506020611d0985828601611b72565b9150509250929050565b6000611d1f8383611ffd565b905092915050565b6000611d32826122ec565b611d3c818561231a565b935083602082028501611d4e856122c7565b8060005b85811015611d8a5784840389528151611d6b8582611d13565b9450611d768361230d565b925060208a01995050600181019050611d52565b50829750879550505050505092915050565b611da581612358565b82525050565b611db481612358565b82525050565b6000611dc582612302565b611dcf818561234d565b9350611ddf81856020860161237d565b80840191505092915050565b6000611df6826122f7565b611e00818561232b565b9350611e1081856020860161237d565b611e19816123b0565b840191505092915050565b6000611e2f826122f7565b611e39818561233c565b9350611e4981856020860161237d565b611e52816123b0565b840191505092915050565b600081546001811660008114611e7a5760018114611e9f57611ee3565b607f6002830416611e8b818761234d565b955060ff1983168652808601935050611ee3565b60028204611ead818761234d565b9550611eb8856122d7565b60005b82811015611eda57815481890152600182019150602081019050611ebb565b82880195505050505b505092915050565b600061018083016000830151611f04600086018261210f565b5060208301518482036020860152611f1c8282611deb565b91505060408301518482036040860152611f368282611deb565b9150506060830151611f4b606086018261210f565b506080830151611f5e608086018261210f565b5060a0830151611f7160a086018261210f565b5060c083015184820360c0860152611f898282611deb565b91505060e0830151611f9e60e0860182611d9c565b50610100830151611fb3610100860182611d9c565b50610120830151611fc861012086018261210f565b50610140830151611fdd61014086018261210f565b50610160830151611ff261016086018261210f565b508091505092915050565b600061018083016000830151612016600086018261210f565b506020830151848203602086015261202e8282611deb565b915050604083015184820360408601526120488282611deb565b915050606083015161205d606086018261210f565b506080830151612070608086018261210f565b5060a083015161208360a086018261210f565b5060c083015184820360c086015261209b8282611deb565b91505060e08301516120b060e0860182611d9c565b506101008301516120c5610100860182611d9c565b506101208301516120da61012086018261210f565b506101408301516120ef61014086018261210f565b5061016083015161210461016086018261210f565b508091505092915050565b61211881612364565b82525050565b61212781612364565b82525050565b60006121398284611dba565b915081905092915050565b60006121508284611e5d565b915081905092915050565b600060208201905081810360008301526121758184611d27565b905092915050565b600060208201905081810360008301526121978184611eeb565b905092915050565b6000610180820190506121b5600083018f61211e565b81810360208301526121c7818e611e24565b905081810360408301526121db818d611e24565b90506121ea606083018c61211e565b6121f7608083018b61211e565b61220460a083018a61211e565b81810360c08301526122168189611e24565b905061222560e0830188611dab565b612233610100830187611dab565b61224161012083018661211e565b61224f61014083018561211e565b61225d61016083018461211e565b9d9c50505050505050505050505050565b6000604051905081810181811067ffffffffffffffff8211171561229157600080fd5b8060405250919050565b600067ffffffffffffffff8211156122b257600080fd5b601f19601f8301169050602081019050919050565b6000819050602082019050919050565b60008190508160005260206000209050919050565b600081519050919050565b600081519050919050565b600081519050919050565b6000602082019050919050565b600082825260208201905092915050565b600082825260208201905092915050565b600082825260208201905092915050565b600081905092915050565b60008115159050919050565b6000819050919050565b82818337600083830152505050565b60005b8381101561239b578082015181840152602081019050612380565b838111156123aa576000848401525b50505050565b6000601f19601f8301169050919050565b6123ca81612364565b81146123d557600080fd5b5056fea365627a7a72315820676ee4845ada1839dbdd104e2dc854f3ca7b3eaac8166c3312bb917bf7ca17906c6578706572696d656e74616cf564736f6c63430005100040",
  "source": "// SPDX-License-Identifier: MIT\r\npragma solidity ^0.5.16;\r\n\r\npragma experimental ABIEncoderV2;\r\n\r\n/**\r\n * @title Ballot\r\n * @dev Implements voting process along with vote delegation\r\n */\r\ncontract Mediciences {\r\n    struct Medicien {\r\n        uint256 id;\r\n        string name;\r\n        string serial;\r\n        uint256 productiondate;\r\n        uint256 expiredate;\r\n        uint256 manfiactorid;\r\n        string manfiactorname;\r\n        bool delivired;\r\n        bool ordered;\r\n        uint256 createdDate;\r\n        uint256 orderedDate;\r\n        uint256 deliveredDate;\r\n    }\r\n\r\n    Medicien[] public mediciences;\r\n    Medicien[] public _Searchmedicien;\r\n    uint256 _id;\r\n\r\n    constructor() public {\r\n        _id = 1;\r\n    }\r\n\r\n    function getmedicienbymanf(uint256 _manfiactorid) public {\r\n        delete _Searchmedicien;\r\n        for (uint256 i = 0; i < mediciences.length; i++) {\r\n            if (mediciences[i].manfiactorid == _manfiactorid) {\r\n                _Searchmedicien.push(mediciences[i]);\r\n            }\r\n        }\r\n    }\r\n\r\n    function get_nonorderd_nonconfirmed_medicien() public {\r\n        delete _Searchmedicien;\r\n        for (uint256 i = 0; i < mediciences.length; i++) {\r\n            if (\r\n                mediciences[i].delivired == false &&\r\n                mediciences[i].ordered == false\r\n            ) {\r\n                _Searchmedicien.push(mediciences[i]);\r\n            }\r\n        }\r\n    }\r\n\r\n    function returnSearchedData()\r\n        public\r\n        view\r\n        returns (Medicien[] memory _medicien)\r\n    {\r\n        return _Searchmedicien;\r\n    }\r\n\r\n    function getmedicien(uint256 id)\r\n        public\r\n        view\r\n        returns (Medicien memory _medicien)\r\n    {\r\n        for (uint256 i = 0; i < mediciences.length; i++) {\r\n            if (mediciences[i].id == id) {\r\n                return (mediciences[i]);\r\n            }\r\n        }\r\n        return\r\n            Medicien({\r\n                name: \"null\",\r\n                id: 0,\r\n                serial: \"null\",\r\n                productiondate: 0,\r\n                expiredate: 0,\r\n                manfiactorid: 0,\r\n                manfiactorname: \"\",\r\n                delivired: false,\r\n                ordered: false,\r\n                createdDate: 0,\r\n                orderedDate: 0,\r\n                deliveredDate: 0\r\n            });\r\n    }\r\n\r\n    function getmedicien_serial(string memory seial)\r\n        public\r\n        view\r\n        returns (Medicien memory _medicien)\r\n    {\r\n        for (uint256 i = 0; i < mediciences.length; i++) {\r\n            if (\r\n                uint256(keccak256(abi.encodePacked((mediciences[i].serial)))) ==\r\n                uint256(keccak256(abi.encodePacked((seial))))\r\n            ) {\r\n                return (mediciences[i]);\r\n            }\r\n        }\r\n        return\r\n            Medicien({\r\n                name: \"null\",\r\n                id: 0,\r\n                serial: \"null\",\r\n                productiondate: 0,\r\n                expiredate: 0,\r\n                manfiactorname: \"\",\r\n                manfiactorid: 0,\r\n                delivired: false,\r\n                ordered: false,\r\n                createdDate: 0,\r\n                orderedDate: 0,\r\n                deliveredDate: 0\r\n            });\r\n    }\r\n\r\n    function addmedicen(\r\n        string memory _name,\r\n        string memory _serial,\r\n        uint256 profuction,\r\n        uint256 expire,\r\n        string memory _manName,\r\n        uint256 manfiactorid,\r\n        uint256 date\r\n    ) public {\r\n        Medicien memory med = getmedicien_serial(_serial);\r\n        if (med.id == 0) {\r\n            mediciences.push(\r\n                Medicien({\r\n                    id: _id,\r\n                    name: _name,\r\n                    serial: _serial,\r\n                    productiondate: profuction,\r\n                    manfiactorname: _manName,\r\n                    expiredate: expire,\r\n                    manfiactorid: manfiactorid,\r\n                    delivired: false,\r\n                    ordered: false,\r\n                    createdDate: date,\r\n                    orderedDate: 0,\r\n                    deliveredDate: 0\r\n                })\r\n            );\r\n            _id++;\r\n        }\r\n    }\r\n\r\n    function OrderMedicien(uint256 _medid, uint256 date) public {\r\n        for (uint256 i = 0; i < mediciences.length; i++) {\r\n            if (\r\n                mediciences[i].id == _medid && mediciences[i].ordered == false\r\n            ) {\r\n                mediciences[i].ordered = true;\r\n                mediciences[i].orderedDate = date;\r\n            }\r\n        }\r\n    }\r\n\r\n    function deleiverMedicien(uint256 _medid, uint256 date) public {\r\n        for (uint256 i = 0; i < mediciences.length; i++) {\r\n            if (\r\n                mediciences[i].id == _medid && mediciences[i].delivired == false\r\n            ) {\r\n                mediciences[i].delivired = true;\r\n                mediciences[i].deliveredDate = date;\r\n            }\r\n        }\r\n    }\r\n}\r\n",
  "sourcePath": "C:/Users/Ramy Makram/Desktop/GP/contracts/Medicien.sol",
  "compiler": {
    "name": "solc",
    "version": "0.5.16+commit.9c3226ce.Emscripten.clang"
  },
  "schemaVersion": "3.4.1",
  "updatedAt": "2021-07-03T14:14:18.627Z",
  "networkType": "ethereum",
  "devdoc": {
    "details": "Implements voting process along with vote delegation",
    "methods": {},
    "title": "Ballot"
  },
  "userdoc": {
    "methods": {}
  }
}