{
  "contractName": "User_Login",
  "abi": [
    {
      "inputs": [],
      "payable": false,
      "stateMutability": "nonpayable",
      "type": "constructor"
    },
    {
      "constant": true,
      "inputs": [
        {
          "internalType": "uint256",
          "name": "",
          "type": "uint256"
        }
      ],
      "name": "users",
      "outputs": [
        {
          "internalType": "uint256",
          "name": "userid",
          "type": "uint256"
        },
        {
          "internalType": "bool",
          "name": "active",
          "type": "bool"
        },
        {
          "internalType": "string",
          "name": "name",
          "type": "string"
        },
        {
          "internalType": "string",
          "name": "username",
          "type": "string"
        },
        {
          "internalType": "string",
          "name": "password",
          "type": "string"
        },
        {
          "internalType": "string",
          "name": "phone",
          "type": "string"
        },
        {
          "internalType": "uint256",
          "name": "addedOn",
          "type": "uint256"
        },
        {
          "internalType": "string",
          "name": "_type",
          "type": "string"
        }
      ],
      "payable": false,
      "stateMutability": "view",
      "type": "function"
    },
    {
      "constant": true,
      "inputs": [
        {
          "internalType": "string",
          "name": "username",
          "type": "string"
        },
        {
          "internalType": "string",
          "name": "password",
          "type": "string"
        },
        {
          "internalType": "string",
          "name": "typ",
          "type": "string"
        }
      ],
      "name": "login",
      "outputs": [
        {
          "components": [
            {
              "internalType": "uint256",
              "name": "userid",
              "type": "uint256"
            },
            {
              "internalType": "bool",
              "name": "active",
              "type": "bool"
            },
            {
              "internalType": "string",
              "name": "name",
              "type": "string"
            },
            {
              "internalType": "string",
              "name": "username",
              "type": "string"
            },
            {
              "internalType": "string",
              "name": "password",
              "type": "string"
            },
            {
              "internalType": "string",
              "name": "phone",
              "type": "string"
            },
            {
              "internalType": "uint256",
              "name": "addedOn",
              "type": "uint256"
            },
            {
              "internalType": "string",
              "name": "_type",
              "type": "string"
            }
          ],
          "internalType": "struct User_Login.User_Obj",
          "name": "user",
          "type": "tuple"
        }
      ],
      "payable": false,
      "stateMutability": "view",
      "type": "function"
    },
    {
      "constant": false,
      "inputs": [
        {
          "internalType": "string",
          "name": "username",
          "type": "string"
        },
        {
          "internalType": "string",
          "name": "password",
          "type": "string"
        },
        {
          "internalType": "string",
          "name": "name",
          "type": "string"
        },
        {
          "internalType": "string",
          "name": "typ",
          "type": "string"
        },
        {
          "internalType": "uint256",
          "name": "add",
          "type": "uint256"
        },
        {
          "internalType": "string",
          "name": "_phone",
          "type": "string"
        }
      ],
      "name": "regiter",
      "outputs": [],
      "payable": false,
      "stateMutability": "nonpayable",
      "type": "function"
    }
  ],
  "bytecode": "0x60806040523480156200001157600080fd5b5060008080549050141562000249576000604051806101000160405280600081526020016001151581526020016040518060400160405280600481526020017f6e756c6c0000000000000000000000000000000000000000000000000000000081525081526020016040518060400160405280600581526020017f61646d696e00000000000000000000000000000000000000000000000000000081525081526020016040518060400160405280600581526020017f61646d696e0000000000000000000000000000000000000000000000000000008152508152602001604051806020016040528060008152508152602001600081526020016040518060400160405280600181526020017f6100000000000000000000000000000000000000000000000000000000000000815250815250908060018154018082558091505090600182039060005260206000209060080201600090919290919091506000820151816000015560208201518160010160006101000a81548160ff0219169083151502179055506040820151816002019080519060200190620001b79291906200024f565b506060820151816003019080519060200190620001d69291906200024f565b506080820151816004019080519060200190620001f59291906200024f565b5060a0820151816005019080519060200190620002149291906200024f565b5060c0820151816006015560e08201518160070190805190602001906200023d9291906200024f565b50505050600180819055505b620002fe565b828054600181600116156101000203166002900490600052602060002090601f016020900481019282601f106200029257805160ff1916838001178555620002c3565b82800160010185558215620002c3579182015b82811115620002c2578251825591602001919060010190620002a5565b5b509050620002d29190620002d6565b5090565b620002fb91905b80821115620002f7576000816000905550600101620002dd565b5090565b90565b6113c8806200030e6000396000f3fe608060405234801561001057600080fd5b50600436106100415760003560e01c8063365b98b214610046578063ce6317661461007d578063d963e76d146100ad575b600080fd5b610060600480360361005b9190810190610f01565b6100c9565b6040516100749897969594939291906111b3565b60405180910390f35b61009760048036036100929190810190610d69565b610423565b6040516100a49190611191565b60405180910390f35b6100c760048036036100c29190810190610e00565b610a9e565b005b600081815481106100d657fe5b90600052602060002090600802016000915090508060000154908060010160009054906101000a900460ff1690806002018054600181600116156101000203166002900480601f01602080910402602001604051908101604052809291908181526020018280546001816001161561010002031660029004801561019b5780601f106101705761010080835404028352916020019161019b565b820191906000526020600020905b81548152906001019060200180831161017e57829003601f168201915b505050505090806003018054600181600116156101000203166002900480601f0160208091040260200160405190810160405280929190818152602001828054600181600116156101000203166002900480156102395780601f1061020e57610100808354040283529160200191610239565b820191906000526020600020905b81548152906001019060200180831161021c57829003601f168201915b505050505090806004018054600181600116156101000203166002900480601f0160208091040260200160405190810160405280929190818152602001828054600181600116156101000203166002900480156102d75780601f106102ac576101008083540402835291602001916102d7565b820191906000526020600020905b8154815290600101906020018083116102ba57829003601f168201915b505050505090806005018054600181600116156101000203166002900480601f0160208091040260200160405190810160405280929190818152602001828054600181600116156101000203166002900480156103755780601f1061034a57610100808354040283529160200191610375565b820191906000526020600020905b81548152906001019060200180831161035857829003601f168201915b505050505090806006015490806007018054600181600116156101000203166002900480601f0160208091040260200160405190810160405280929190818152602001828054600181600116156101000203166002900480156104195780601f106103ee57610100808354040283529160200191610419565b820191906000526020600020905b8154815290600101906020018083116103fc57829003601f168201915b5050505050905088565b61042b610c14565b600080905060008090505b60008054905081101561098357856040516020016104549190611163565b6040516020818303038152906040528051906020012060001c6000828154811061047a57fe5b906000526020600020906008020160030160405160200161049b919061117a565b6040516020818303038152906040528051906020012060001c14801561052f5750846040516020016104cd9190611163565b6040516020818303038152906040528051906020012060001c600082815481106104f357fe5b9060005260206000209060080201600401604051602001610514919061117a565b6040516020818303038152906040528051906020012060001c145b80156105a95750836040516020016105479190611163565b6040516020818303038152906040528051906020012060001c6000828154811061056d57fe5b906000526020600020906008020160070160405160200161058e919061117a565b6040516020818303038152906040528051906020012060001c145b80156105e4575060011515600082815481106105c157fe5b906000526020600020906008020160010160009054906101000a900460ff161515145b156109765760019150600081815481106105fa57fe5b906000526020600020906008020160405180610100016040529081600082015481526020016001820160009054906101000a900460ff16151515158152602001600282018054600181600116156101000203166002900480601f0160208091040260200160405190810160405280929190818152602001828054600181600116156101000203166002900480156106d25780601f106106a7576101008083540402835291602001916106d2565b820191906000526020600020905b8154815290600101906020018083116106b557829003601f168201915b50505050508152602001600382018054600181600116156101000203166002900480601f0160208091040260200160405190810160405280929190818152602001828054600181600116156101000203166002900480156107745780601f1061074957610100808354040283529160200191610774565b820191906000526020600020905b81548152906001019060200180831161075757829003601f168201915b50505050508152602001600482018054600181600116156101000203166002900480601f0160208091040260200160405190810160405280929190818152602001828054600181600116156101000203166002900480156108165780601f106107eb57610100808354040283529160200191610816565b820191906000526020600020905b8154815290600101906020018083116107f957829003601f168201915b50505050508152602001600582018054600181600116156101000203166002900480601f0160208091040260200160405190810160405280929190818152602001828054600181600116156101000203166002900480156108b85780601f1061088d576101008083540402835291602001916108b8565b820191906000526020600020905b81548152906001019060200180831161089b57829003601f168201915b5050505050815260200160068201548152602001600782018054600181600116156101000203166002900480601f0160208091040260200160405190810160405280929190818152602001828054600181600116156101000203166002900480156109645780601f1061093957610100808354040283529160200191610964565b820191906000526020600020905b81548152906001019060200180831161094757829003601f168201915b50505050508152505092505050610a97565b8080600101915050610436565b50600015158115151415610a9557604051806101000160405280600081526020016000151581526020016040518060400160405280600481526020017f6e756c6c0000000000000000000000000000000000000000000000000000000081525081526020016040518060400160405280600481526020017f6e756c6c0000000000000000000000000000000000000000000000000000000081525081526020016040518060400160405280600481526020017f6e756c6c0000000000000000000000000000000000000000000000000000000081525081526020016040518060200160405280600081525081526020016000815260200160405180602001604052806000815250815250915050610a97565b505b9392505050565b610aa6610c14565b610ab1878786610423565b905060001515816020015115151415610c0b576000604051806101000160405280600154815260200160011515815260200187815260200189815260200188815260200184815260200185815260200186815250908060018154018082558091505090600182039060005260206000209060080201600090919290919091506000820151816000015560208201518160010160006101000a81548160ff0219169083151502179055506040820151816002019080519060200190610b76929190610c5b565b506060820151816003019080519060200190610b93929190610c5b565b506080820151816004019080519060200190610bb0929190610c5b565b5060a0820151816005019080519060200190610bcd929190610c5b565b5060c0820151816006015560e0820151816007019080519060200190610bf4929190610c5b565b505050506001600081548092919060010191905055505b50505050505050565b604051806101000160405280600081526020016000151581526020016060815260200160608152602001606081526020016060815260200160008152602001606081525090565b828054600181600116156101000203166002900490600052602060002090601f016020900481019282601f10610c9c57805160ff1916838001178555610cca565b82800160010185558215610cca579182015b82811115610cc9578251825591602001919060010190610cae565b5b509050610cd79190610cdb565b5090565b610cfd91905b80821115610cf9576000816000905550600101610ce1565b5090565b90565b600082601f830112610d1157600080fd5b8135610d24610d1f82611281565b611254565b91508082526020830160208301858383011115610d4057600080fd5b610d4b83828461131b565b50505092915050565b600081359050610d638161136e565b92915050565b600080600060608486031215610d7e57600080fd5b600084013567ffffffffffffffff811115610d9857600080fd5b610da486828701610d00565b935050602084013567ffffffffffffffff811115610dc157600080fd5b610dcd86828701610d00565b925050604084013567ffffffffffffffff811115610dea57600080fd5b610df686828701610d00565b9150509250925092565b60008060008060008060c08789031215610e1957600080fd5b600087013567ffffffffffffffff811115610e3357600080fd5b610e3f89828a01610d00565b965050602087013567ffffffffffffffff811115610e5c57600080fd5b610e6889828a01610d00565b955050604087013567ffffffffffffffff811115610e8557600080fd5b610e9189828a01610d00565b945050606087013567ffffffffffffffff811115610eae57600080fd5b610eba89828a01610d00565b9350506080610ecb89828a01610d54565b92505060a087013567ffffffffffffffff811115610ee857600080fd5b610ef489828a01610d00565b9150509295509295509295565b600060208284031215610f1357600080fd5b6000610f2184828501610d54565b91505092915050565b610f3381611305565b82525050565b610f4281611305565b82525050565b6000610f53826112cd565b610f5d81856112fa565b9350610f6d81856020860161132a565b80840191505092915050565b6000610f84826112c2565b610f8e81856112d8565b9350610f9e81856020860161132a565b610fa78161135d565b840191505092915050565b6000610fbd826112c2565b610fc781856112e9565b9350610fd781856020860161132a565b610fe08161135d565b840191505092915050565b600081546001811660008114611008576001811461102d57611071565b607f600283041661101981876112fa565b955060ff1983168652808601935050611071565b6002820461103b81876112fa565b9550611046856112ad565b60005b8281101561106857815481890152600182019150602081019050611049565b82880195505050505b505092915050565b6000610100830160008301516110926000860182611145565b5060208301516110a56020860182610f2a565b50604083015184820360408601526110bd8282610f79565b915050606083015184820360608601526110d78282610f79565b915050608083015184820360808601526110f18282610f79565b91505060a083015184820360a086015261110b8282610f79565b91505060c083015161112060c0860182611145565b5060e083015184820360e08601526111388282610f79565b9150508091505092915050565b61114e81611311565b82525050565b61115d81611311565b82525050565b600061116f8284610f48565b915081905092915050565b60006111868284610feb565b915081905092915050565b600060208201905081810360008301526111ab8184611079565b905092915050565b6000610100820190506111c9600083018b611154565b6111d6602083018a610f39565b81810360408301526111e88189610fb2565b905081810360608301526111fc8188610fb2565b905081810360808301526112108187610fb2565b905081810360a08301526112248186610fb2565b905061123360c0830185611154565b81810360e08301526112458184610fb2565b90509998505050505050505050565b6000604051905081810181811067ffffffffffffffff8211171561127757600080fd5b8060405250919050565b600067ffffffffffffffff82111561129857600080fd5b601f19601f8301169050602081019050919050565b60008190508160005260206000209050919050565b600081519050919050565b600081519050919050565b600082825260208201905092915050565b600082825260208201905092915050565b600081905092915050565b60008115159050919050565b6000819050919050565b82818337600083830152505050565b60005b8381101561134857808201518184015260208101905061132d565b83811115611357576000848401525b50505050565b6000601f19601f8301169050919050565b61137781611311565b811461138257600080fd5b5056fea365627a7a72315820605f7bc848c1571456cf5c27ebe9a5775988bb57cee01fe12f4acd4e597cfd0e6c6578706572696d656e74616cf564736f6c63430005100040",
  "source": "// SPDX-License-Identifier: MIT\r\npragma solidity ^0.5.16;\r\n\r\npragma experimental ABIEncoderV2;\r\n\r\n/**\r\n * @title Ballot\r\n * @dev Implements voting process along with vote delegation\r\n */\r\ncontract User_Login {\r\n    struct User_Obj {\r\n        uint256 userid;\r\n        bool active;\r\n        string name;\r\n        string username;\r\n        string password;\r\n        string phone;\r\n        uint256 addedOn;\r\n        string _type; //\"a\" admin,\"p\" pharmacy,\"m\" manfiactor\r\n    }\r\n\r\n    User_Obj[] public users;\r\n\r\n    uint256 _userid;\r\n\r\n    constructor() public {\r\n        if (users.length == 0) {\r\n            users.push(\r\n                User_Obj({\r\n                    userid: 0,\r\n                    active: true,\r\n                    name: \"null\",\r\n                    username: \"admin\",\r\n                    password: \"admin\",\r\n                    _type:\"a\",\r\n                    phone:\"\",\r\n                    addedOn:0\r\n                })\r\n            );\r\n            _userid = 1;\r\n        }\r\n    }\r\n\r\n    function login(string memory username, string memory password,string memory typ)\r\n        public\r\n        view\r\n        returns (User_Obj memory user)\r\n    {\r\n        bool find = false;\r\n        for (uint256 i = 0; i < users.length; i++) {\r\n            if (\r\n                uint256(keccak256(abi.encodePacked((users[i].username)))) ==\r\n                uint256(keccak256(abi.encodePacked((username)))) &&\r\n                uint256(keccak256(abi.encodePacked((users[i].password)))) ==\r\n                uint256(keccak256(abi.encodePacked((password)))) &&\r\n                uint256(keccak256(abi.encodePacked((users[i]._type)))) ==\r\n                uint256(keccak256(abi.encodePacked((typ)))) &&\r\n                users[i].active == true\r\n            ) {\r\n                find = true;\r\n                return users[i];\r\n            }\r\n        }\r\n\r\n        if (find == false)\r\n            return\r\n                User_Obj({\r\n                    userid: 0,\r\n                    active: false,\r\n                    name: \"null\",\r\n                    username: \"null\",\r\n                    password: \"null\",\r\n                    addedOn:0,\r\n                    phone:\"\",\r\n                    _type:\"\"\r\n                });\r\n    }\r\n\r\n    function regiter(\r\n        string memory username,\r\n        string memory password,\r\n        string memory name,\r\n        string memory typ,\r\n        uint256 add,\r\n        string memory _phone\r\n    ) public {\r\n        User_Obj memory user = login(username, password,typ);\r\n        if (user.active == false) {\r\n            users.push(\r\n                User_Obj({\r\n                    userid: _userid,\r\n                    active: true,\r\n                    name: name,\r\n                    username: username,\r\n                    password: password,\r\n                    _type:typ,\r\n                    phone:_phone,\r\n                    addedOn:add\r\n                })\r\n            );\r\n            _userid++;\r\n        }\r\n    }\r\n}\r\n",
  "sourcePath": "C:/Users/Ramy Makram/Desktop/GP/contracts/User_Login.sol",
  "compiler": {
    "name": "solc",
    "version": "0.5.16+commit.9c3226ce.Emscripten.clang"
  },
  "schemaVersion": "3.4.1",
  "updatedAt": "2021-07-03T14:14:18.650Z",
  "networkType": "ethereum",
  "devdoc": {
    "details": "Implements voting process along with vote delegation",
    "methods": {},
    "title": "Ballot"
  },
  "userdoc": {
    "methods": {}
  }
}